{
  "_format": "hh-sol-artifact-1",
  "contractName": "LeveragedPool",
  "sourceName": "contracts/implementation/LeveragedPool.sol",
  "abi": [
    {
      "anonymous": false,
      "inputs": [
        {
          "indexed": true,
          "internalType": "address",
          "name": "oldAddress",
          "type": "address"
        },
        {
          "indexed": true,
          "internalType": "address",
          "name": "newAddress",
          "type": "address"
        }
      ],
      "name": "FeeAddressUpdated",
      "type": "event"
    },
    {
      "anonymous": false,
      "inputs": [
        {
          "indexed": true,
          "internalType": "address",
          "name": "oldAddress",
          "type": "address"
        },
        {
          "indexed": true,
          "internalType": "address",
          "name": "newAddress",
          "type": "address"
        }
      ],
      "name": "GovernanceAddressChanged",
      "type": "event"
    },
    {
      "anonymous": false,
      "inputs": [
        {
          "indexed": true,
          "internalType": "address",
          "name": "oldAddress",
          "type": "address"
        },
        {
          "indexed": true,
          "internalType": "address",
          "name": "newAddress",
          "type": "address"
        }
      ],
      "name": "KeeperAddressChanged",
      "type": "event"
    },
    {
      "anonymous": false,
      "inputs": [],
      "name": "Paused",
      "type": "event"
    },
    {
      "anonymous": false,
      "inputs": [
        {
          "indexed": true,
          "internalType": "address",
          "name": "longToken",
          "type": "address"
        },
        {
          "indexed": true,
          "internalType": "address",
          "name": "shortToken",
          "type": "address"
        },
        {
          "indexed": false,
          "internalType": "address",
          "name": "quoteToken",
          "type": "address"
        },
        {
          "indexed": false,
          "internalType": "string",
          "name": "poolName",
          "type": "string"
        }
      ],
      "name": "PoolInitialized",
      "type": "event"
    },
    {
      "anonymous": false,
      "inputs": [
        {
          "indexed": false,
          "internalType": "int256",
          "name": "shortBalanceChange",
          "type": "int256"
        },
        {
          "indexed": false,
          "internalType": "int256",
          "name": "longBalanceChange",
          "type": "int256"
        }
      ],
      "name": "PoolRebalance",
      "type": "event"
    },
    {
      "anonymous": false,
      "inputs": [
        {
          "indexed": true,
          "internalType": "int256",
          "name": "startPrice",
          "type": "int256"
        },
        {
          "indexed": true,
          "internalType": "int256",
          "name": "endPrice",
          "type": "int256"
        }
      ],
      "name": "PriceChangeError",
      "type": "event"
    },
    {
      "anonymous": false,
      "inputs": [
        {
          "indexed": true,
          "internalType": "address",
          "name": "newAddress",
          "type": "address"
        }
      ],
      "name": "ProvisionalGovernanceChanged",
      "type": "event"
    },
    {
      "anonymous": false,
      "inputs": [],
      "name": "Unpaused",
      "type": "event"
    },
    {
      "inputs": [],
      "name": "balances",
      "outputs": [
        {
          "internalType": "uint256",
          "name": "_shortBalance",
          "type": "uint256"
        },
        {
          "internalType": "uint256",
          "name": "_longBalance",
          "type": "uint256"
        }
      ],
      "stateMutability": "view",
      "type": "function"
    },
    {
      "inputs": [
        {
          "internalType": "uint256",
          "name": "token",
          "type": "uint256"
        },
        {
          "internalType": "uint256",
          "name": "amount",
          "type": "uint256"
        },
        {
          "internalType": "address",
          "name": "burner",
          "type": "address"
        }
      ],
      "name": "burnTokens",
      "outputs": [],
      "stateMutability": "nonpayable",
      "type": "function"
    },
    {
      "inputs": [],
      "name": "claimGovernance",
      "outputs": [],
      "stateMutability": "nonpayable",
      "type": "function"
    },
    {
      "inputs": [],
      "name": "fee",
      "outputs": [
        {
          "internalType": "bytes16",
          "name": "",
          "type": "bytes16"
        }
      ],
      "stateMutability": "view",
      "type": "function"
    },
    {
      "inputs": [],
      "name": "feeAddress",
      "outputs": [
        {
          "internalType": "address",
          "name": "",
          "type": "address"
        }
      ],
      "stateMutability": "view",
      "type": "function"
    },
    {
      "inputs": [],
      "name": "frontRunningInterval",
      "outputs": [
        {
          "internalType": "uint32",
          "name": "",
          "type": "uint32"
        }
      ],
      "stateMutability": "view",
      "type": "function"
    },
    {
      "inputs": [],
      "name": "getOraclePrice",
      "outputs": [
        {
          "internalType": "int256",
          "name": "",
          "type": "int256"
        }
      ],
      "stateMutability": "view",
      "type": "function"
    },
    {
      "inputs": [],
      "name": "getUpkeepInformation",
      "outputs": [
        {
          "internalType": "int256",
          "name": "_latestPrice",
          "type": "int256"
        },
        {
          "internalType": "bytes",
          "name": "_data",
          "type": "bytes"
        },
        {
          "internalType": "uint256",
          "name": "_lastPriceTimestamp",
          "type": "uint256"
        },
        {
          "internalType": "uint256",
          "name": "_updateInterval",
          "type": "uint256"
        }
      ],
      "stateMutability": "view",
      "type": "function"
    },
    {
      "inputs": [],
      "name": "governance",
      "outputs": [
        {
          "internalType": "address",
          "name": "",
          "type": "address"
        }
      ],
      "stateMutability": "view",
      "type": "function"
    },
    {
      "inputs": [],
      "name": "governanceTransferInProgress",
      "outputs": [
        {
          "internalType": "bool",
          "name": "",
          "type": "bool"
        }
      ],
      "stateMutability": "view",
      "type": "function"
    },
    {
      "inputs": [
        {
          "components": [
            {
              "internalType": "address",
              "name": "_owner",
              "type": "address"
            },
            {
              "internalType": "address",
              "name": "_keeper",
              "type": "address"
            },
            {
              "internalType": "address",
              "name": "_oracleWrapper",
              "type": "address"
            },
            {
              "internalType": "address",
              "name": "_settlementEthOracle",
              "type": "address"
            },
            {
              "internalType": "address",
              "name": "_longToken",
              "type": "address"
            },
            {
              "internalType": "address",
              "name": "_shortToken",
              "type": "address"
            },
            {
              "internalType": "address",
              "name": "_poolCommitter",
              "type": "address"
            },
            {
              "internalType": "string",
              "name": "_poolName",
              "type": "string"
            },
            {
              "internalType": "uint32",
              "name": "_frontRunningInterval",
              "type": "uint32"
            },
            {
              "internalType": "uint32",
              "name": "_updateInterval",
              "type": "uint32"
            },
            {
              "internalType": "bytes16",
              "name": "_fee",
              "type": "bytes16"
            },
            {
              "internalType": "uint16",
              "name": "_leverageAmount",
              "type": "uint16"
            },
            {
              "internalType": "address",
              "name": "_feeAddress",
              "type": "address"
            },
            {
              "internalType": "address",
              "name": "_quoteToken",
              "type": "address"
            }
          ],
          "internalType": "struct ILeveragedPool.Initialization",
          "name": "initialization",
          "type": "tuple"
        }
      ],
      "name": "initialize",
      "outputs": [],
      "stateMutability": "nonpayable",
      "type": "function"
    },
    {
      "inputs": [],
      "name": "intervalPassed",
      "outputs": [
        {
          "internalType": "bool",
          "name": "",
          "type": "bool"
        }
      ],
      "stateMutability": "view",
      "type": "function"
    },
    {
      "inputs": [],
      "name": "keeper",
      "outputs": [
        {
          "internalType": "address",
          "name": "",
          "type": "address"
        }
      ],
      "stateMutability": "view",
      "type": "function"
    },
    {
      "inputs": [],
      "name": "lastPriceTimestamp",
      "outputs": [
        {
          "internalType": "uint256",
          "name": "",
          "type": "uint256"
        }
      ],
      "stateMutability": "view",
      "type": "function"
    },
    {
      "inputs": [],
      "name": "leverageAmount",
      "outputs": [
        {
          "internalType": "bytes16",
          "name": "",
          "type": "bytes16"
        }
      ],
      "stateMutability": "view",
      "type": "function"
    },
    {
      "inputs": [],
      "name": "longBalance",
      "outputs": [
        {
          "internalType": "uint256",
          "name": "",
          "type": "uint256"
        }
      ],
      "stateMutability": "view",
      "type": "function"
    },
    {
      "inputs": [
        {
          "internalType": "uint256",
          "name": "token",
          "type": "uint256"
        },
        {
          "internalType": "uint256",
          "name": "amount",
          "type": "uint256"
        },
        {
          "internalType": "address",
          "name": "minter",
          "type": "address"
        }
      ],
      "name": "mintTokens",
      "outputs": [],
      "stateMutability": "nonpayable",
      "type": "function"
    },
    {
      "inputs": [],
      "name": "oracleWrapper",
      "outputs": [
        {
          "internalType": "address",
          "name": "",
          "type": "address"
        }
      ],
      "stateMutability": "view",
      "type": "function"
    },
    {
      "inputs": [],
      "name": "pause",
      "outputs": [],
      "stateMutability": "nonpayable",
      "type": "function"
    },
    {
      "inputs": [],
      "name": "paused",
      "outputs": [
        {
          "internalType": "bool",
          "name": "",
          "type": "bool"
        }
      ],
      "stateMutability": "view",
      "type": "function"
    },
    {
      "inputs": [
        {
          "internalType": "address",
          "name": "to",
          "type": "address"
        },
        {
          "internalType": "uint256",
          "name": "amount",
          "type": "uint256"
        }
      ],
      "name": "payKeeperFromBalances",
      "outputs": [
        {
          "internalType": "bool",
          "name": "",
          "type": "bool"
        }
      ],
      "stateMutability": "nonpayable",
      "type": "function"
    },
    {
      "inputs": [],
      "name": "poolCommitter",
      "outputs": [
        {
          "internalType": "address",
          "name": "",
          "type": "address"
        }
      ],
      "stateMutability": "view",
      "type": "function"
    },
    {
      "inputs": [],
      "name": "poolName",
      "outputs": [
        {
          "internalType": "string",
          "name": "",
          "type": "string"
        }
      ],
      "stateMutability": "view",
      "type": "function"
    },
    {
      "inputs": [],
      "name": "poolTokens",
      "outputs": [
        {
          "internalType": "address[2]",
          "name": "",
          "type": "address[2]"
        }
      ],
      "stateMutability": "view",
      "type": "function"
    },
    {
      "inputs": [
        {
          "internalType": "int256",
          "name": "_oldPrice",
          "type": "int256"
        },
        {
          "internalType": "int256",
          "name": "_newPrice",
          "type": "int256"
        }
      ],
      "name": "poolUpkeep",
      "outputs": [],
      "stateMutability": "nonpayable",
      "type": "function"
    },
    {
      "inputs": [],
      "name": "provisionalGovernance",
      "outputs": [
        {
          "internalType": "address",
          "name": "",
          "type": "address"
        }
      ],
      "stateMutability": "view",
      "type": "function"
    },
    {
      "inputs": [],
      "name": "quoteToken",
      "outputs": [
        {
          "internalType": "address",
          "name": "",
          "type": "address"
        }
      ],
      "stateMutability": "view",
      "type": "function"
    },
    {
      "inputs": [
        {
          "internalType": "address",
          "name": "to",
          "type": "address"
        },
        {
          "internalType": "uint256",
          "name": "amount",
          "type": "uint256"
        }
      ],
      "name": "quoteTokenTransfer",
      "outputs": [],
      "stateMutability": "nonpayable",
      "type": "function"
    },
    {
      "inputs": [
        {
          "internalType": "address",
          "name": "from",
          "type": "address"
        },
        {
          "internalType": "address",
          "name": "to",
          "type": "address"
        },
        {
          "internalType": "uint256",
          "name": "amount",
          "type": "uint256"
        }
      ],
      "name": "quoteTokenTransferFrom",
      "outputs": [],
      "stateMutability": "nonpayable",
      "type": "function"
    },
    {
      "inputs": [
        {
          "internalType": "address",
          "name": "_keeper",
          "type": "address"
        }
      ],
      "name": "setKeeper",
      "outputs": [],
      "stateMutability": "nonpayable",
      "type": "function"
    },
    {
      "inputs": [
        {
          "internalType": "uint256",
          "name": "_longBalance",
          "type": "uint256"
        },
        {
          "internalType": "uint256",
          "name": "_shortBalance",
          "type": "uint256"
        }
      ],
      "name": "setNewPoolBalances",
      "outputs": [],
      "stateMutability": "nonpayable",
      "type": "function"
    },
    {
      "inputs": [],
      "name": "settlementEthOracle",
      "outputs": [
        {
          "internalType": "address",
          "name": "",
          "type": "address"
        }
      ],
      "stateMutability": "view",
      "type": "function"
    },
    {
      "inputs": [],
      "name": "shortBalance",
      "outputs": [
        {
          "internalType": "uint256",
          "name": "",
          "type": "uint256"
        }
      ],
      "stateMutability": "view",
      "type": "function"
    },
    {
      "inputs": [
        {
          "internalType": "uint256",
          "name": "",
          "type": "uint256"
        }
      ],
      "name": "tokens",
      "outputs": [
        {
          "internalType": "address",
          "name": "",
          "type": "address"
        }
      ],
      "stateMutability": "view",
      "type": "function"
    },
    {
      "inputs": [
        {
          "internalType": "address",
          "name": "_governance",
          "type": "address"
        }
      ],
      "name": "transferGovernance",
      "outputs": [],
      "stateMutability": "nonpayable",
      "type": "function"
    },
    {
      "inputs": [],
      "name": "unpause",
      "outputs": [],
      "stateMutability": "nonpayable",
      "type": "function"
    },
    {
      "inputs": [
        {
          "internalType": "address",
          "name": "account",
          "type": "address"
        }
      ],
      "name": "updateFeeAddress",
      "outputs": [],
      "stateMutability": "nonpayable",
      "type": "function"
    },
    {
      "inputs": [],
      "name": "updateInterval",
      "outputs": [
        {
          "internalType": "uint32",
          "name": "",
          "type": "uint32"
        }
      ],
      "stateMutability": "view",
      "type": "function"
    },
    {
      "inputs": [],
      "name": "withdrawQuote",
      "outputs": [],
      "stateMutability": "nonpayable",
      "type": "function"
    }
  ],
  "bytecode": "0x608060405234801561001057600080fd5b50612c8f806100206000396000f3fe608060405234801561001057600080fd5b506004361061023d5760003560e01c80637bfe789a1161013b578063ba8d5468116100b8578063f164e2a71161007c578063f164e2a7146104df578063f3466dfa146104f3578063f633a74014610508578063fab0dd6a1461051b578063fd2c80ae1461052e57600080fd5b8063ba8d546814610489578063bbcaac3814610492578063cd39f30f146104a5578063d38bfff4146104b8578063ddca3f43146104cb57600080fd5b806387f9ca5d116100ff57806387f9ca5d146104175780639fd552451461042a578063ab47c2b31461043d578063aced166114610463578063b9ed8abf1461047657600080fd5b80637bfe789a146103c55780637de93f93146103ea5780637e71fc7d146103f35780638226f396146103fc5780638456cb591461040f57600080fd5b80635c975abb116101c957806375c66e2f1161018d57806375c66e2f14610366578063796da7af146103795780637b0a0c901461038f5780637bb98a68146103a25780637bbf1033146103bd57600080fd5b80635c975abb146102ff5780635d36b190146103235780636d3e313e1461032b5780636dc2b27114610340578063748747e61461035357600080fd5b80633f4ba83a116102105780633f4ba83a146102ab57806341275358146102b35780634f64b2be146102c65780635817f0c6146102d95780635aa6e675146102ec57600080fd5b806304883c2714610242578063217a4b70146102635780633c3f82521461028e5780633d4c485d146102a3575b600080fd5b61024a610546565b60405161025a9493929190612a1d565b60405180910390f35b600a54610276906001600160a01b031681565b6040516001600160a01b03909116815260200161025a565b6102a161029c3660046127f0565b6105f9565b005b6102a1610661565b6102a1610771565b600954610276906001600160a01b031681565b6102766102d4366004612895565b6107d3565b6102a16102e7366004612698565b6107f3565b600754610276906001600160a01b031681565b60105461031390600160a81b900460ff1681565b604051901515815260200161025a565b6102a16108b4565b6103336109f2565b60405161025a91906129e3565b61031361034e366004612698565b610a36565b6102a1610361366004612641565b610c00565b6102a16103743660046128d2565b610d07565b610381610ee7565b60405190815260200161025a565b6102a161039d36600461265c565b610f69565b6001546002546040805192835260208301919091520161025a565b610313611081565b6003546103d59063ffffffff1681565b60405163ffffffff909116815260200161025a565b610381600c5481565b61038160025481565b600f54610276906001600160a01b031681565b6102a16110ab565b6102a16104253660046128d2565b611113565b601054610276906001600160a01b031681565b60045461044a9060801b81565b6040516001600160801b0319909116815260200161025a565b600854610276906001600160a01b031681565b600e54610276906001600160a01b031681565b61038160015481565b6102a16104a0366004612641565b6112ee565b600b54610276906001600160a01b031681565b6102a16104c6366004612641565b6113ea565b60035461044a90600160401b900460801b81565b60105461031390600160a01b900460ff1681565b6104fb6114f9565b60405161025a9190612a49565b6102a16105163660046127f0565b611587565b6102a1610529366004612835565b6116d1565b6003546103d590640100000000900463ffffffff1681565b60006060600080600e60009054906101000a90046001600160a01b03166001600160a01b031663db6d8fcf6040518163ffffffff1660e01b815260040160006040518083038186803b15801561059b57600080fd5b505afa1580156105af573d6000803e3d6000fd5b505050506040513d6000823e601f3d908101601f191682016040526105d79190810190612737565b600c546003549297919650945064010000000090910463ffffffff1692509050565b600b546001600160a01b0316331461062c5760405162461bcd60e51b815260040161062390612a84565b60405180910390fd5b601054600160a81b900460ff16156106565760405162461bcd60e51b815260040161062390612a5c565b600291909155600155565b6007546001600160a01b0316331461068b5760405162461bcd60e51b815260040161062390612abb565b601054600160a81b900460ff166106d35760405162461bcd60e51b815260206004820152600c60248201526b506f6f6c206973206c69766560a01b6044820152606401610623565b600a546040516370a0823160e01b81523060048201526001600160a01b039091169060009082906370a082319060240160206040518083038186803b15801561071b57600080fd5b505afa15801561072f573d6000803e3d6000fd5b505050506040513d601f19601f82011682018060405250810190610753919061271e565b600a5490915061076d906001600160a01b03163383612082565b5050565b6007546001600160a01b0316331461079b5760405162461bcd60e51b815260040161062390612abb565b6010805460ff60a81b191690556040517fa45f47fdea8a1efdd9029a5691c7f759c32b7c698632b563573e155625d1693390600090a1565b600581600281106107e357600080fd5b01546001600160a01b0316905081565b600b546001600160a01b0316331461081d5760405162461bcd60e51b815260040161062390612a84565b601054600160a81b900460ff16156108475760405162461bcd60e51b815260040161062390612a5c565b6001600160a01b03821661089d5760405162461bcd60e51b815260206004820152601e60248201527f546f20616464726573732063616e6e6f742062652030206164647265737300006044820152606401610623565b600a5461076d906001600160a01b03168383612082565b601054600160a81b900460ff16156108de5760405162461bcd60e51b815260040161062390612a5c565b601054600160a01b900460ff166109375760405162461bcd60e51b815260206004820152601b60248201527f4e6f20676f7665726e616e6365206368616e67652061637469766500000000006044820152606401610623565b6010546001600160a01b031633146109915760405162461bcd60e51b815260206004820152601860248201527f4e6f742070726f766973696f6e616c20676f7665726e6f7200000000000000006044820152606401610623565b60078054601080546001600160a01b038082166001600160a01b03198516811790955560ff60a01b199091169091556040519116919082907f023588d3d1dcaad34e471c9e01b616b794156174bc693539c8fe15c0bfd5d82690600090a350565b6109fa61256e565b60408051808201918290529060059060029082845b81546001600160a01b03168152600190910190602001808311610a0f575050505050905090565b6008546000906001600160a01b03163314610a8b5760405162461bcd60e51b815260206004820152601560248201527436b9b39739b2b73232b9103737ba1035b2b2b832b960591b6044820152606401610623565b601054600160a81b900460ff1615610ab55760405162461bcd60e51b815260040161062390612a5c565b6001600160a01b038316610b155760405162461bcd60e51b815260206004820152602160248201527f52656365697069656e7420616464726573732063616e6e6f74206265206e756c6044820152601b60fa1b6064820152608401610623565b600154600254610b258183612b40565b8410610b3657600092505050610bfa565b60405163dc35bc1360e01b8152600481018590526024810183905260448101829052600090819073__$dc3b4b0a367edd91a2d74c73e2da54c142$__9063dc35bc1390606401604080518083038186803b158015610b9357600080fd5b505af4158015610ba7573d6000803e3d6000fd5b505050506040513d601f19601f82011682018060405250810190610bcb91906128ae565b60018290556002819055600a549193509150610bf1906001600160a01b03168888612082565b60019450505050505b92915050565b6007546001600160a01b03163314610c2a5760405162461bcd60e51b815260040161062390612abb565b601054600160a81b900460ff1615610c545760405162461bcd60e51b815260040161062390612a5c565b6001600160a01b038116610cb55760405162461bcd60e51b815260206004820152602260248201527f4b656570657220616464726573732063616e6e6f742062652030206164647265604482015261737360f01b6064820152608401610623565b600880546001600160a01b038381166001600160a01b0319831681179093556040519116919082907f402b3f9a8de3e388e7653c7a5892204fe18b579c8c23db19d6e00f1043ceb92190600090a35050565b600b546001600160a01b03163314610d315760405162461bcd60e51b815260040161062390612a84565b601054600160a81b900460ff1615610d5b5760405162461bcd60e51b815260040161062390612a5c565b6001600160a01b038116610dbc5760405162461bcd60e51b815260206004820152602260248201527f4d696e74657220616464726573732063616e6e6f742062652030206164647265604482015261737360f01b6064820152608401610623565b821580610dc95750826001145b610e105760405162461bcd60e51b8152602060048201526018602482015277506f6f6c3a20746f6b656e206f7574206f662072616e676560401b6044820152606401610623565b60058360028110610e2357610e23612c14565b01546040516394bf804d60e01b8152600481018490526001600160a01b038381166024830152909116906394bf804d90604401602060405180830381600087803b158015610e7057600080fd5b505af1158015610e84573d6000803e3d6000fd5b505050506040513d601f19601f82011682018060405250810190610ea891906126c2565b610ee25760405162461bcd60e51b815260206004820152600b60248201526a135a5b9d0819985a5b195960aa1b6044820152606401610623565b505050565b600e5460408051634c6afee560e11b815290516000926001600160a01b0316916398d5fdca916004808301926020929190829003018186803b158015610f2c57600080fd5b505afa158015610f40573d6000803e3d6000fd5b505050506040513d601f19601f82011682018060405250810190610f64919061271e565b905090565b600b546001600160a01b03163314610f935760405162461bcd60e51b815260040161062390612a84565b601054600160a81b900460ff1615610fbd5760405162461bcd60e51b815260040161062390612a5c565b6001600160a01b0383166110135760405162461bcd60e51b815260206004820181905260248201527f46726f6d20616464726573732063616e6e6f74206265203020616464726573736044820152606401610623565b6001600160a01b0382166110695760405162461bcd60e51b815260206004820152601e60248201527f546f20616464726573732063616e6e6f742062652030206164647265737300006044820152606401610623565b600a54610ee2906001600160a01b03168484846120e5565b600354600c546000916110a39164010000000090910463ffffffff1690612b40565b421015905090565b6007546001600160a01b031633146110d55760405162461bcd60e51b815260040161062390612abb565b6010805460ff60a81b1916600160a81b1790556040517f9e87fac88ff661f02d44f95383c817fece4bce600a3dab7a54406878b965e75290600090a1565b600b546001600160a01b0316331461113d5760405162461bcd60e51b815260040161062390612a84565b601054600160a81b900460ff16156111675760405162461bcd60e51b815260040161062390612a5c565b6001600160a01b0381166111c85760405162461bcd60e51b815260206004820152602260248201527f4275726e657220616464726573732063616e6e6f742062652030206164647265604482015261737360f01b6064820152608401610623565b8215806111d55750826001145b61121c5760405162461bcd60e51b8152602060048201526018602482015277506f6f6c3a20746f6b656e206f7574206f662072616e676560401b6044820152606401610623565b6005836002811061122f5761122f612c14565b0154604051633f34d4cf60e21b8152600481018490526001600160a01b0383811660248301529091169063fcd3533c90604401602060405180830381600087803b15801561127c57600080fd5b505af1158015611290573d6000803e3d6000fd5b505050506040513d601f19601f820116820180604052508101906112b491906126c2565b610ee25760405162461bcd60e51b815260206004820152600b60248201526a109d5c9b8819985a5b195960aa1b6044820152606401610623565b6007546001600160a01b031633146113185760405162461bcd60e51b815260040161062390612abb565b601054600160a81b900460ff16156113425760405162461bcd60e51b815260040161062390612a5c565b6001600160a01b0381166113985760405162461bcd60e51b815260206004820152601b60248201527f4163636f756e742063616e6e6f742062652030206164647265737300000000006044820152606401610623565b600980546001600160a01b038381166001600160a01b0319831681179093556040519116919082907f11f35a22548bcd4c3788ab4a7e4fba427a2014f02e5d5e2da9af62212c03183f90600090a35050565b6007546001600160a01b031633146114145760405162461bcd60e51b815260040161062390612abb565b601054600160a81b900460ff161561143e5760405162461bcd60e51b815260040161062390612a5c565b6001600160a01b0381166114a35760405162461bcd60e51b815260206004820152602660248201527f476f7665726e616e636520616464726573732063616e6e6f742062652030206160448201526564647265737360d01b6064820152608401610623565b601080546001600160a81b0319166001600160a01b0380841691909117600160a01b17918290556040519116907f35681f4f23137fb58510a9854f1b6e95f90a2cf0b66d2fce4df74cc0becc82d590600090a250565b600d805461150690612bc3565b80601f016020809104026020016040519081016040528092919081815260200182805461153290612bc3565b801561157f5780601f106115545761010080835404028352916020019161157f565b820191906000526020600020905b81548152906001019060200180831161156257829003601f168201915b505050505081565b6008546001600160a01b031633146115d95760405162461bcd60e51b815260206004820152601560248201527436b9b39739b2b73232b9103737ba1035b2b2b832b960591b6044820152606401610623565b601054600160a81b900460ff16156116035760405162461bcd60e51b815260040161062390612a5c565b61160b611081565b6116575760405162461bcd60e51b815260206004820152601d60248201527f55706461746520696e74657276616c206861736e2774207061737365640000006044820152606401610623565b6116618282612123565b600b60009054906101000a90046001600160a01b03166001600160a01b0316631c536da46040518163ffffffff1660e01b8152600401600060405180830381600087803b1580156116b157600080fd5b505af11580156116c5573d6000803e3d6000fd5b505042600c5550505050565b600054610100900460ff16806116ea575060005460ff16155b61174d5760405162461bcd60e51b815260206004820152602e60248201527f496e697469616c697a61626c653a20636f6e747261637420697320616c72656160448201526d191e481a5b9a5d1a585b1a5e995960921b6064820152608401610623565b600054610100900460ff1615801561176f576000805461ffff19166101011790555b60006117836101a084016101808501612641565b6001600160a01b031614156117da5760405162461bcd60e51b815260206004820152601f60248201527f46656520616464726573732063616e6e6f7420626520302061646472657373006044820152606401610623565b60006117ee6101c084016101a08501612641565b6001600160a01b031614156118455760405162461bcd60e51b815260206004820152601f60248201527f51756f746520746f6b656e2063616e6e6f7420626520302061646472657373006044820152606401610623565b60006118576060840160408501612641565b6001600160a01b031614156118b95760405162461bcd60e51b815260206004820152602260248201527f4f7261636c6520777261707065722063616e6e6f742062652030206164647265604482015261737360f01b6064820152608401610623565b60006118cb6080840160608501612641565b6001600160a01b0316141561192c5760405162461bcd60e51b815260206004820152602160248201527f4b6565706572206f7261636c652063616e6e6f742062652030206164647265736044820152607360f81b6064820152608401610623565b600061193b6020840184612641565b6001600160a01b031614156119925760405162461bcd60e51b815260206004820152601960248201527f4f776e65722063616e6e6f7420626520302061646472657373000000000000006044820152606401610623565b60006119a46040840160208501612641565b6001600160a01b031614156119fb5760405162461bcd60e51b815260206004820152601a60248201527f4b65657065722063616e6e6f74206265203020616464726573730000000000006044820152606401610623565b6000611a0d60a0840160808501612641565b6001600160a01b03161415611a645760405162461bcd60e51b815260206004820152601e60248201527f4c6f6e6720746f6b656e2063616e6e6f742062652030206164647265737300006044820152606401610623565b6000611a7660c0840160a08501612641565b6001600160a01b03161415611acd5760405162461bcd60e51b815260206004820152601f60248201527f53686f727420746f6b656e2063616e6e6f7420626520302061646472657373006044820152606401610623565b6000611adf60e0840160c08501612641565b6001600160a01b03161415611b405760405162461bcd60e51b815260206004820152602160248201527f506f6f6c436f6d6d69747465722063616e6e6f742062652030206164647265736044820152607360f81b6064820152608401610623565b611b5261014083016101208401612935565b63ffffffff16611b6a61012084016101008501612935565b63ffffffff1610611bbd5760405162461bcd60e51b815260206004820152601d60248201527f66726f6e7452756e6e696e67203e20757064617465496e74657276616c0000006044820152606401610623565b73__$dc3b4b0a367edd91a2d74c73e2da54c142$__631842c9d8611be9610160850161014086016126e4565b60405160e083901b6001600160e01b03191681526001600160801b03199091166004820152613fff60f01b602482015260440160206040518083038186803b158015611c3457600080fd5b505af4158015611c48573d6000803e3d6000fd5b505050506040513d601f19601f82011682018060405250810190611c6c9190612812565b60000b60001914611cad5760405162461bcd60e51b815260206004820152600b60248201526a466565203e3d203130302560a81b6044820152606401610623565b611cba6020830183612641565b600780546001600160a01b0319166001600160a01b0392909216919091179055611cea6040830160208401612641565b600880546001600160a01b0319166001600160a01b0392909216919091179055611d1a6060830160408401612641565b600e80546001600160a01b0319166001600160a01b0392909216919091179055611d4a6080830160608401612641565b600f80546001600160a01b0319166001600160a01b0392909216919091179055611d7c6101c083016101a08401612641565b600a80546001600160a01b0319166001600160a01b0392909216919091179055611dae61012083016101008401612935565b6003805463ffffffff191663ffffffff92909216919091179055611dda61014083016101208401612935565b6003805463ffffffff929092166401000000000267ffffffff0000000019909216919091179055611e13610160830161014084016126e4565b6003805460809290921c600160401b0277ffffffffffffffffffffffffffffffff00000000000000001990921691909117905573__$dc3b4b0a367edd91a2d74c73e2da54c142$__63dfdbe4da611e7261018085016101608601612871565b6040516001600160e01b031960e084901b16815261ffff909116600482015260240160206040518083038186803b158015611eac57600080fd5b505af4158015611ec0573d6000803e3d6000fd5b505050506040513d601f19601f82011682018060405250810190611ee49190612701565b600480546001600160801b03191660809290921c919091179055611f106101a083016101808401612641565b600980546001600160a01b0319166001600160a01b039290921691909117905542600c55611f4160e0830183612af2565b611f4d91600d9161258c565b50611f5e60a0830160808401612641565b600560000180546001600160a01b0319166001600160a01b0392909216919091179055611f9160c0830160a08401612641565b600560010180546001600160a01b0319166001600160a01b0392909216919091179055611fc460e0830160c08401612641565b600b80546001600160a01b0319166001600160a01b0392909216919091179055611ff460c0830160a08401612641565b6001600160a01b031661200d60a0840160808501612641565b6001600160a01b03167fbc8bd61e5dd69ff5cb8c389529c029503515ba368eaafbdaa406e072fdd360726120496101c086016101a08701612641565b61205660e0870187612af2565b604051612065939291906129a3565b60405180910390a3801561076d576000805461ff00191690555050565b6040516001600160a01b038316602482015260448101829052610ee290849063a9059cbb60e01b906064015b60408051601f198184030181529190526020810180516001600160e01b03166001600160e01b031990931692909217909152612322565b6040516001600160a01b038085166024830152831660448201526064810182905261211d9085906323b872dd60e01b906084016120ae565b50505050565b601054600160a81b900460ff161561214d5760405162461bcd60e51b815260040161062390612a5c565b60008213158061215e575060008113155b1561219457604051819083907f27f70c863f1bd3e335bb4d6bf2a31075c861752f0b21a03b816a356035b1dec690600090a35050565b6001546002546040805160c0810182528581526020810185815281830184815260608301868152600480546001600160801b0319608091821b8116828801908152600354600160401b900490921b811660a088019081529751632920706d60e21b815287519381019390935294516024830152925160448201529051606482015290518216608482015292511660a4830152906000908190819073__$dc3b4b0a367edd91a2d74c73e2da54c142$__9063a481c1b49060c40160606040518083038186803b15801561226557600080fd5b505af4158015612279573d6000803e3d6000fd5b505050506040513d601f19601f8201168201806040525081019061229d9190612907565b919450925090507f3a4a53e86baa9b577f931e849a3472fd6be844c0916377bc806be891847a5c2b6122cf8784612b58565b6122d98786612b58565b6040805192835260208301919091520160405180910390a160028390556001829055600954600a54612318916001600160a01b03918216911683612082565b5050505050505050565b6000612377826040518060400160405280602081526020017f5361666545524332303a206c6f772d6c6576656c2063616c6c206661696c6564815250856001600160a01b03166123f49092919063ffffffff16565b805190915015610ee2578080602001905181019061239591906126c2565b610ee25760405162461bcd60e51b815260206004820152602a60248201527f5361666545524332303a204552433230206f7065726174696f6e20646964206e6044820152691bdd081cdd58d8d9595960b21b6064820152608401610623565b6060612403848460008561240d565b90505b9392505050565b60608247101561246e5760405162461bcd60e51b815260206004820152602660248201527f416464726573733a20696e73756666696369656e742062616c616e636520666f6044820152651c8818d85b1b60d21b6064820152608401610623565b843b6124bc5760405162461bcd60e51b815260206004820152601d60248201527f416464726573733a2063616c6c20746f206e6f6e2d636f6e74726163740000006044820152606401610623565b600080866001600160a01b031685876040516124d89190612987565b60006040518083038185875af1925050503d8060008114612515576040519150601f19603f3d011682016040523d82523d6000602084013e61251a565b606091505b509150915061252a828286612535565b979650505050505050565b60608315612544575081612406565b8251156125545782518084602001fd5b8160405162461bcd60e51b81526004016106239190612a49565b60405180604001604052806002906020820280368337509192915050565b82805461259890612bc3565b90600052602060002090601f0160209004810192826125ba5760008555612600565b82601f106125d35782800160ff19823516178555612600565b82800160010185558215612600579182015b828111156126005782358255916020019190600101906125e5565b5061260c929150612610565b5090565b5b8082111561260c5760008155600101612611565b80356001600160a01b038116811461263c57600080fd5b919050565b60006020828403121561265357600080fd5b61240682612625565b60008060006060848603121561267157600080fd5b61267a84612625565b925061268860208501612625565b9150604084013590509250925092565b600080604083850312156126ab57600080fd5b6126b483612625565b946020939093013593505050565b6000602082840312156126d457600080fd5b8151801515811461240657600080fd5b6000602082840312156126f657600080fd5b813561240681612c40565b60006020828403121561271357600080fd5b815161240681612c40565b60006020828403121561273057600080fd5b5051919050565b6000806040838503121561274a57600080fd5b82519150602083015167ffffffffffffffff8082111561276957600080fd5b818501915085601f83011261277d57600080fd5b81518181111561278f5761278f612c2a565b604051601f8201601f19908116603f011681019083821181831017156127b7576127b7612c2a565b816040528281528860208487010111156127d057600080fd5b6127e1836020830160208801612b97565b80955050505050509250929050565b6000806040838503121561280357600080fd5b50508035926020909101359150565b60006020828403121561282457600080fd5b81518060000b811461240657600080fd5b60006020828403121561284757600080fd5b813567ffffffffffffffff81111561285e57600080fd5b82016101c0818503121561240657600080fd5b60006020828403121561288357600080fd5b813561ffff8116811461240657600080fd5b6000602082840312156128a757600080fd5b5035919050565b600080604083850312156128c157600080fd5b505080516020909101519092909150565b6000806000606084860312156128e757600080fd5b83359250602084013591506128fe60408501612625565b90509250925092565b60008060006060848603121561291c57600080fd5b8351925060208401519150604084015190509250925092565b60006020828403121561294757600080fd5b813563ffffffff8116811461240657600080fd5b60008151808452612973816020860160208601612b97565b601f01601f19169290920160200192915050565b60008251612999818460208701612b97565b9190910192915050565b6001600160a01b03841681526040602082018190528101829052818360608301376000818301606090810191909152601f909201601f1916010192915050565b60408101818360005b6002811015612a145781516001600160a01b03168352602092830192909101906001016129ec565b50505092915050565b848152608060208201526000612a36608083018661295b565b6040830194909452506060015292915050565b602081526000612406602083018461295b565b6020808252600e908201526d141bdbdb081a5cc81c185d5cd95960921b604082015260600190565b6020808252601c908201527f6d73672e73656e646572206e6f7420706f6f6c436f6d6d697474657200000000604082015260600190565b60208082526019908201527f6d73672e73656e646572206e6f7420676f7665726e616e636500000000000000604082015260600190565b6000808335601e19843603018112612b0957600080fd5b83018035915067ffffffffffffffff821115612b2457600080fd5b602001915036819003821315612b3957600080fd5b9250929050565b60008219821115612b5357612b53612bfe565b500190565b60008083128015600160ff1b850184121615612b7657612b76612bfe565b6001600160ff1b0384018313811615612b9157612b91612bfe565b50500390565b60005b83811015612bb2578181015183820152602001612b9a565b8381111561211d5750506000910152565b600181811c90821680612bd757607f821691505b60208210811415612bf857634e487b7160e01b600052602260045260246000fd5b50919050565b634e487b7160e01b600052601160045260246000fd5b634e487b7160e01b600052603260045260246000fd5b634e487b7160e01b600052604160045260246000fd5b6001600160801b031981168114612c5657600080fd5b5056fea2646970667358221220534ad54a44e5f8eb7b28be3cb5896b6cd1fae605f2e9c87f95cfe36def3060d264736f6c63430008070033",
  "linkReferences": {
    "contracts/implementation/PoolSwapLibrary.sol": {
      "PoolSwapLibrary": [
        {
          "length": 20,
          "start": 2943
        },
        {
          "length": 20,
          "start": 7135
        },
        {
          "length": 20,
          "start": 7784
        },
        {
          "length": 20,
          "start": 8784
        }
      ]
    }
  },
  "deployedLinkReferences": {
    "contracts/implementation/PoolSwapLibrary.sol": {
      "PoolSwapLibrary": [
        {
          "length": 20,
          "start": 2911
        },
        {
          "length": 20,
          "start": 7103
        },
        {
          "length": 20,
          "start": 7752
        },
        {
          "length": 20,
          "start": 8752
        }
      ]
    }
  }
}