{
  "_format": "hh-sol-artifact-1",
  "contractName": "PoolCommitter",
  "sourceName": "contracts/implementation/PoolCommitter.sol",
  "abi": [
    {
      "anonymous": false,
      "inputs": [
        {
          "indexed": true,
          "internalType": "address",
          "name": "user",
          "type": "address"
        }
      ],
      "name": "AggregateBalanceUpdated",
      "type": "event"
    },
    {
      "anonymous": false,
      "inputs": [
        {
          "indexed": true,
          "internalType": "uint256",
          "name": "_burningFee",
          "type": "uint256"
        }
      ],
      "name": "BurningFeeSet",
      "type": "event"
    },
    {
      "anonymous": false,
      "inputs": [
        {
          "indexed": true,
          "internalType": "uint256",
          "name": "_changeInterval",
          "type": "uint256"
        }
      ],
      "name": "ChangeIntervalSet",
      "type": "event"
    },
    {
      "anonymous": false,
      "inputs": [
        {
          "indexed": true,
          "internalType": "address",
          "name": "user",
          "type": "address"
        }
      ],
      "name": "Claim",
      "type": "event"
    },
    {
      "anonymous": false,
      "inputs": [
        {
          "indexed": true,
          "internalType": "address",
          "name": "user",
          "type": "address"
        },
        {
          "indexed": true,
          "internalType": "uint256",
          "name": "amount",
          "type": "uint256"
        },
        {
          "indexed": true,
          "internalType": "enum IPoolCommitter.CommitType",
          "name": "commitType",
          "type": "uint8"
        },
        {
          "indexed": false,
          "internalType": "uint256",
          "name": "appropriateUpdateIntervalId",
          "type": "uint256"
        },
        {
          "indexed": false,
          "internalType": "bool",
          "name": "fromAggregateBalance",
          "type": "bool"
        },
        {
          "indexed": false,
          "internalType": "bool",
          "name": "payForClaim",
          "type": "bool"
        },
        {
          "indexed": false,
          "internalType": "bytes16",
          "name": "mintingFee",
          "type": "bytes16"
        }
      ],
      "name": "CreateCommit",
      "type": "event"
    },
    {
      "anonymous": false,
      "inputs": [
        {
          "indexed": true,
          "internalType": "uint256",
          "name": "updateIntervalId",
          "type": "uint256"
        },
        {
          "indexed": false,
          "internalType": "bytes16",
          "name": "burningFee",
          "type": "bytes16"
        }
      ],
      "name": "ExecutedCommitsForInterval",
      "type": "event"
    },
    {
      "anonymous": false,
      "inputs": [
        {
          "indexed": true,
          "internalType": "address",
          "name": "_feeController",
          "type": "address"
        }
      ],
      "name": "FeeControllerSet",
      "type": "event"
    },
    {
      "anonymous": false,
      "inputs": [
        {
          "indexed": true,
          "internalType": "uint256",
          "name": "_mintingFee",
          "type": "uint256"
        }
      ],
      "name": "MintingFeeSet",
      "type": "event"
    },
    {
      "anonymous": false,
      "inputs": [],
      "name": "Paused",
      "type": "event"
    },
    {
      "anonymous": false,
      "inputs": [
        {
          "indexed": true,
          "internalType": "address",
          "name": "newPool",
          "type": "address"
        }
      ],
      "name": "PoolChanged",
      "type": "event"
    },
    {
      "anonymous": false,
      "inputs": [],
      "name": "Unpaused",
      "type": "event"
    },
    {
      "inputs": [],
      "name": "LONG_INDEX",
      "outputs": [
        {
          "internalType": "uint128",
          "name": "",
          "type": "uint128"
        }
      ],
      "stateMutability": "view",
      "type": "function"
    },
    {
      "inputs": [],
      "name": "MAX_BURNING_FEE",
      "outputs": [
        {
          "internalType": "bytes16",
          "name": "",
          "type": "bytes16"
        }
      ],
      "stateMutability": "view",
      "type": "function"
    },
    {
      "inputs": [],
      "name": "MAX_CHANGE_INTERVAL",
      "outputs": [
        {
          "internalType": "bytes16",
          "name": "",
          "type": "bytes16"
        }
      ],
      "stateMutability": "view",
      "type": "function"
    },
    {
      "inputs": [],
      "name": "MAX_ITERATIONS",
      "outputs": [
        {
          "internalType": "uint8",
          "name": "",
          "type": "uint8"
        }
      ],
      "stateMutability": "view",
      "type": "function"
    },
    {
      "inputs": [],
      "name": "MAX_MINTING_FEE",
      "outputs": [
        {
          "internalType": "bytes16",
          "name": "",
          "type": "bytes16"
        }
      ],
      "stateMutability": "view",
      "type": "function"
    },
    {
      "inputs": [],
      "name": "SHORT_INDEX",
      "outputs": [
        {
          "internalType": "uint128",
          "name": "",
          "type": "uint128"
        }
      ],
      "stateMutability": "view",
      "type": "function"
    },
    {
      "inputs": [],
      "name": "autoClaim",
      "outputs": [
        {
          "internalType": "contract IAutoClaim",
          "name": "",
          "type": "address"
        }
      ],
      "stateMutability": "view",
      "type": "function"
    },
    {
      "inputs": [
        {
          "internalType": "uint256",
          "name": "",
          "type": "uint256"
        }
      ],
      "name": "burnFeeHistory",
      "outputs": [
        {
          "internalType": "bytes16",
          "name": "",
          "type": "bytes16"
        }
      ],
      "stateMutability": "view",
      "type": "function"
    },
    {
      "inputs": [],
      "name": "burningFee",
      "outputs": [
        {
          "internalType": "bytes16",
          "name": "",
          "type": "bytes16"
        }
      ],
      "stateMutability": "view",
      "type": "function"
    },
    {
      "inputs": [],
      "name": "changeInterval",
      "outputs": [
        {
          "internalType": "bytes16",
          "name": "",
          "type": "bytes16"
        }
      ],
      "stateMutability": "view",
      "type": "function"
    },
    {
      "inputs": [
        {
          "internalType": "address",
          "name": "user",
          "type": "address"
        }
      ],
      "name": "claim",
      "outputs": [],
      "stateMutability": "nonpayable",
      "type": "function"
    },
    {
      "inputs": [
        {
          "internalType": "bytes32",
          "name": "args",
          "type": "bytes32"
        }
      ],
      "name": "commit",
      "outputs": [],
      "stateMutability": "payable",
      "type": "function"
    },
    {
      "inputs": [
        {
          "internalType": "uint256",
          "name": "lastPriceTimestamp",
          "type": "uint256"
        },
        {
          "internalType": "uint256",
          "name": "updateInterval",
          "type": "uint256"
        },
        {
          "internalType": "uint256",
          "name": "longBalance",
          "type": "uint256"
        },
        {
          "internalType": "uint256",
          "name": "shortBalance",
          "type": "uint256"
        }
      ],
      "name": "executeCommitments",
      "outputs": [
        {
          "internalType": "uint256",
          "name": "",
          "type": "uint256"
        },
        {
          "internalType": "uint256",
          "name": "",
          "type": "uint256"
        },
        {
          "internalType": "uint256",
          "name": "",
          "type": "uint256"
        },
        {
          "internalType": "uint256",
          "name": "",
          "type": "uint256"
        },
        {
          "internalType": "uint256",
          "name": "",
          "type": "uint256"
        }
      ],
      "stateMutability": "nonpayable",
      "type": "function"
    },
    {
      "inputs": [],
      "name": "factory",
      "outputs": [
        {
          "internalType": "address",
          "name": "",
          "type": "address"
        }
      ],
      "stateMutability": "view",
      "type": "function"
    },
    {
      "inputs": [],
      "name": "feeController",
      "outputs": [
        {
          "internalType": "address",
          "name": "",
          "type": "address"
        }
      ],
      "stateMutability": "view",
      "type": "function"
    },
    {
      "inputs": [
        {
          "internalType": "address",
          "name": "user",
          "type": "address"
        }
      ],
      "name": "getAggregateBalance",
      "outputs": [
        {
          "components": [
            {
              "internalType": "uint256",
              "name": "longTokens",
              "type": "uint256"
            },
            {
              "internalType": "uint256",
              "name": "shortTokens",
              "type": "uint256"
            },
            {
              "internalType": "uint256",
              "name": "settlementTokens",
              "type": "uint256"
            }
          ],
          "internalType": "struct IPoolCommitter.Balance",
          "name": "",
          "type": "tuple"
        }
      ],
      "stateMutability": "view",
      "type": "function"
    },
    {
      "inputs": [],
      "name": "getAppropriateUpdateIntervalId",
      "outputs": [
        {
          "internalType": "uint128",
          "name": "",
          "type": "uint128"
        }
      ],
      "stateMutability": "view",
      "type": "function"
    },
    {
      "inputs": [],
      "name": "getBurningFee",
      "outputs": [
        {
          "internalType": "uint256",
          "name": "",
          "type": "uint256"
        }
      ],
      "stateMutability": "view",
      "type": "function"
    },
    {
      "inputs": [],
      "name": "getMintingFee",
      "outputs": [
        {
          "internalType": "uint256",
          "name": "",
          "type": "uint256"
        }
      ],
      "stateMutability": "view",
      "type": "function"
    },
    {
      "inputs": [],
      "name": "governance",
      "outputs": [
        {
          "internalType": "address",
          "name": "",
          "type": "address"
        }
      ],
      "stateMutability": "view",
      "type": "function"
    },
    {
      "inputs": [
        {
          "internalType": "address",
          "name": "_factory",
          "type": "address"
        },
        {
          "internalType": "address",
          "name": "_autoClaim",
          "type": "address"
        },
        {
          "internalType": "address",
          "name": "_factoryOwner",
          "type": "address"
        },
        {
          "internalType": "address",
          "name": "_feeController",
          "type": "address"
        },
        {
          "internalType": "address",
          "name": "_invariantCheck",
          "type": "address"
        },
        {
          "internalType": "uint256",
          "name": "_mintingFee",
          "type": "uint256"
        },
        {
          "internalType": "uint256",
          "name": "_burningFee",
          "type": "uint256"
        },
        {
          "internalType": "uint256",
          "name": "_changeInterval",
          "type": "uint256"
        }
      ],
      "name": "initialize",
      "outputs": [],
      "stateMutability": "nonpayable",
      "type": "function"
    },
    {
      "inputs": [],
      "name": "invariantCheck",
      "outputs": [
        {
          "internalType": "address",
          "name": "",
          "type": "address"
        }
      ],
      "stateMutability": "view",
      "type": "function"
    },
    {
      "inputs": [
        {
          "internalType": "enum IPoolCommitter.CommitType",
          "name": "t",
          "type": "uint8"
        }
      ],
      "name": "isBurn",
      "outputs": [
        {
          "internalType": "bool",
          "name": "",
          "type": "bool"
        }
      ],
      "stateMutability": "pure",
      "type": "function"
    },
    {
      "inputs": [
        {
          "internalType": "enum IPoolCommitter.CommitType",
          "name": "t",
          "type": "uint8"
        }
      ],
      "name": "isLong",
      "outputs": [
        {
          "internalType": "bool",
          "name": "",
          "type": "bool"
        }
      ],
      "stateMutability": "pure",
      "type": "function"
    },
    {
      "inputs": [
        {
          "internalType": "enum IPoolCommitter.CommitType",
          "name": "t",
          "type": "uint8"
        }
      ],
      "name": "isMint",
      "outputs": [
        {
          "internalType": "bool",
          "name": "",
          "type": "bool"
        }
      ],
      "stateMutability": "pure",
      "type": "function"
    },
    {
      "inputs": [
        {
          "internalType": "enum IPoolCommitter.CommitType",
          "name": "t",
          "type": "uint8"
        }
      ],
      "name": "isShort",
      "outputs": [
        {
          "internalType": "bool",
          "name": "",
          "type": "bool"
        }
      ],
      "stateMutability": "pure",
      "type": "function"
    },
    {
      "inputs": [
        {
          "internalType": "address",
          "name": "",
          "type": "address"
        }
      ],
      "name": "lastUpdatedIntervalId",
      "outputs": [
        {
          "internalType": "uint256",
          "name": "",
          "type": "uint256"
        }
      ],
      "stateMutability": "view",
      "type": "function"
    },
    {
      "inputs": [],
      "name": "leveragedPool",
      "outputs": [
        {
          "internalType": "address",
          "name": "",
          "type": "address"
        }
      ],
      "stateMutability": "view",
      "type": "function"
    },
    {
      "inputs": [],
      "name": "mintingFee",
      "outputs": [
        {
          "internalType": "bytes16",
          "name": "",
          "type": "bytes16"
        }
      ],
      "stateMutability": "view",
      "type": "function"
    },
    {
      "inputs": [],
      "name": "pause",
      "outputs": [],
      "stateMutability": "nonpayable",
      "type": "function"
    },
    {
      "inputs": [],
      "name": "paused",
      "outputs": [
        {
          "internalType": "bool",
          "name": "",
          "type": "bool"
        }
      ],
      "stateMutability": "view",
      "type": "function"
    },
    {
      "inputs": [],
      "name": "pendingLongBurnPoolTokens",
      "outputs": [
        {
          "internalType": "uint256",
          "name": "",
          "type": "uint256"
        }
      ],
      "stateMutability": "view",
      "type": "function"
    },
    {
      "inputs": [],
      "name": "pendingMintSettlementAmount",
      "outputs": [
        {
          "internalType": "uint256",
          "name": "",
          "type": "uint256"
        }
      ],
      "stateMutability": "view",
      "type": "function"
    },
    {
      "inputs": [],
      "name": "pendingShortBurnPoolTokens",
      "outputs": [
        {
          "internalType": "uint256",
          "name": "",
          "type": "uint256"
        }
      ],
      "stateMutability": "view",
      "type": "function"
    },
    {
      "inputs": [
        {
          "internalType": "uint256",
          "name": "",
          "type": "uint256"
        }
      ],
      "name": "priceHistory",
      "outputs": [
        {
          "internalType": "bytes16",
          "name": "longPrice",
          "type": "bytes16"
        },
        {
          "internalType": "bytes16",
          "name": "shortPrice",
          "type": "bytes16"
        }
      ],
      "stateMutability": "view",
      "type": "function"
    },
    {
      "inputs": [
        {
          "internalType": "uint256",
          "name": "_burningFee",
          "type": "uint256"
        }
      ],
      "name": "setBurningFee",
      "outputs": [],
      "stateMutability": "nonpayable",
      "type": "function"
    },
    {
      "inputs": [
        {
          "internalType": "uint256",
          "name": "_changeInterval",
          "type": "uint256"
        }
      ],
      "name": "setChangeInterval",
      "outputs": [],
      "stateMutability": "nonpayable",
      "type": "function"
    },
    {
      "inputs": [
        {
          "internalType": "address",
          "name": "_feeController",
          "type": "address"
        }
      ],
      "name": "setFeeController",
      "outputs": [],
      "stateMutability": "nonpayable",
      "type": "function"
    },
    {
      "inputs": [
        {
          "internalType": "uint256",
          "name": "_mintingFee",
          "type": "uint256"
        }
      ],
      "name": "setMintingFee",
      "outputs": [],
      "stateMutability": "nonpayable",
      "type": "function"
    },
    {
      "inputs": [
        {
          "internalType": "address",
          "name": "_leveragedPool",
          "type": "address"
        }
      ],
      "name": "setPool",
      "outputs": [],
      "stateMutability": "nonpayable",
      "type": "function"
    },
    {
      "inputs": [
        {
          "internalType": "uint256",
          "name": "",
          "type": "uint256"
        }
      ],
      "name": "tokens",
      "outputs": [
        {
          "internalType": "address",
          "name": "",
          "type": "address"
        }
      ],
      "stateMutability": "view",
      "type": "function"
    },
    {
      "inputs": [
        {
          "internalType": "uint256",
          "name": "",
          "type": "uint256"
        }
      ],
      "name": "totalPoolCommitments",
      "outputs": [
        {
          "internalType": "uint256",
          "name": "longMintSettlement",
          "type": "uint256"
        },
        {
          "internalType": "uint256",
          "name": "longBurnPoolTokens",
          "type": "uint256"
        },
        {
          "internalType": "uint256",
          "name": "shortMintSettlement",
          "type": "uint256"
        },
        {
          "internalType": "uint256",
          "name": "shortBurnPoolTokens",
          "type": "uint256"
        },
        {
          "internalType": "uint256",
          "name": "shortBurnLongMintPoolTokens",
          "type": "uint256"
        },
        {
          "internalType": "uint256",
          "name": "longBurnShortMintPoolTokens",
          "type": "uint256"
        }
      ],
      "stateMutability": "view",
      "type": "function"
    },
    {
      "inputs": [
        {
          "internalType": "address",
          "name": "",
          "type": "address"
        },
        {
          "internalType": "uint256",
          "name": "",
          "type": "uint256"
        }
      ],
      "name": "unAggregatedCommitments",
      "outputs": [
        {
          "internalType": "uint256",
          "name": "",
          "type": "uint256"
        }
      ],
      "stateMutability": "view",
      "type": "function"
    },
    {
      "inputs": [],
      "name": "unpause",
      "outputs": [],
      "stateMutability": "nonpayable",
      "type": "function"
    },
    {
      "inputs": [
        {
          "internalType": "address",
          "name": "user",
          "type": "address"
        }
      ],
      "name": "updateAggregateBalance",
      "outputs": [],
      "stateMutability": "nonpayable",
      "type": "function"
    },
    {
      "inputs": [],
      "name": "updateIntervalId",
      "outputs": [
        {
          "internalType": "uint128",
          "name": "",
          "type": "uint128"
        }
      ],
      "stateMutability": "view",
      "type": "function"
    },
    {
      "inputs": [
        {
          "internalType": "address",
          "name": "",
          "type": "address"
        }
      ],
      "name": "userAggregateBalance",
      "outputs": [
        {
          "internalType": "uint256",
          "name": "longTokens",
          "type": "uint256"
        },
        {
          "internalType": "uint256",
          "name": "shortTokens",
          "type": "uint256"
        },
        {
          "internalType": "uint256",
          "name": "settlementTokens",
          "type": "uint256"
        }
      ],
      "stateMutability": "view",
      "type": "function"
    },
    {
      "inputs": [
        {
          "internalType": "address",
          "name": "",
          "type": "address"
        },
        {
          "internalType": "uint256",
          "name": "",
          "type": "uint256"
        }
      ],
      "name": "userCommitments",
      "outputs": [
        {
          "internalType": "uint256",
          "name": "longMintSettlement",
          "type": "uint256"
        },
        {
          "internalType": "uint256",
          "name": "longBurnPoolTokens",
          "type": "uint256"
        },
        {
          "internalType": "uint256",
          "name": "shortMintSettlement",
          "type": "uint256"
        },
        {
          "internalType": "uint256",
          "name": "shortBurnPoolTokens",
          "type": "uint256"
        },
        {
          "internalType": "uint256",
          "name": "shortBurnLongMintPoolTokens",
          "type": "uint256"
        },
        {
          "internalType": "uint256",
          "name": "longBurnShortMintPoolTokens",
          "type": "uint256"
        },
        {
          "internalType": "uint256",
          "name": "updateIntervalId",
          "type": "uint256"
        }
      ],
      "stateMutability": "view",
      "type": "function"
    }
  ],
  "bytecode": "0x6080604052600180546001600160801b0319168117905534801561002257600080fd5b50614e8c806100326000396000f3fe6080604052600436106102935760003560e01c80638f5b8e871161015a578063c45a0155116100c1578063ea348c9a1161007a578063ea348c9a146108fc578063f14fcbc814610953578063f3fa35a0146105eb578063f9dc972014610966578063fa87166514610986578063fe5898581461099b57600080fd5b8063c45a01551461084a578063c70db3231461086a578063ce66091614610890578063d4c4e283146108a6578063e20acc79146108bb578063e323aac6146108dc57600080fd5b8063af91497611610113578063af91497614610780578063b27a048414610796578063b59d88a9146107e0578063b9fc75b0146107f5578063c3bed53f14610815578063c40f6aa91461083557600080fd5b80638f5b8e871461062957806390f712cc1461067157806397ac250f1461068b5780639a546848146106a15780639d03132e146107405780639fa21dca1461076057600080fd5b806355c10624116101fe5780636fa1268e116101b75780636fa1268e146105785780637403c6cd146105965780638456cb59146105b6578063882d882b146105cb57806388b78aaa146105eb5780638d7269fa1461060957600080fd5b806355c106241461048b5780635a64ad95146104c65780635aa6e675146104e75780635c975abb146105075780636333091a146105385780636999b3771461055857600080fd5b80633ed4c678116102505780633ed4c6781461039c5780633f4ba83a146103bc5780634437152a146103d15780634509017e146103f15780634f64b2be1461042957806354da49921461044957600080fd5b8063062e0d69146102985780631aabc7e7146102ca5780631d92c26d146103135780631e83409a1461033a578063238a47091461035c578063384564e31461037c575b600080fd5b3480156102a457600080fd5b506102ad600081565b6040516001600160801b0390911681526020015b60405180910390f35b3480156102d657600080fd5b506102fa6102e5366004614a32565b60066020526000908152604090205460801b81565b6040516001600160801b031990911681526020016102c1565b34801561031f57600080fd5b50610328600f81565b60405160ff90911681526020016102c1565b34801561034657600080fd5b5061035a610355366004614881565b610a18565b005b34801561036857600080fd5b5061035a610377366004614a32565b610de4565b34801561038857600080fd5b5061035a610397366004614a32565b610f40565b3480156103a857600080fd5b5061035a6103b7366004614881565b6110a7565b3480156103c857600080fd5b5061035a611160565b3480156103dd57600080fd5b5061035a6103ec366004614881565b6111f2565b3480156103fd57600080fd5b50601454610411906001600160a01b031681565b6040516001600160a01b0390911681526020016102c1565b34801561043557600080fd5b50610411610444366004614a32565b61136a565b34801561045557600080fd5b50610469610464366004614881565b61138a565b60408051825181526020808401519082015291810151908201526060016102c1565b34801561049757600080fd5b506104b86104a6366004614881565b600d6020526000908152604090205481565b6040519081526020016102c1565b3480156104d257600080fd5b506001546102fa90600160801b900460801b81565b3480156104f357600080fd5b50601154610411906001600160a01b031681565b34801561051357600080fd5b5060145461052890600160a01b900460ff1681565b60405190151581526020016102c1565b34801561054457600080fd5b50610528610553366004614a4b565b611615565b34801561056457600080fd5b50601254610411906001600160a01b031681565b34801561058457600080fd5b506102fa66201bb1a2bc2ec560c91b81565b3480156105a257600080fd5b5061035a6105b136600461489e565b61164f565b3480156105c257600080fd5b5061035a611c18565b3480156105d757600080fd5b506105286105e6366004614a4b565b611cb0565b3480156105f757600080fd5b506102fa668075782dace9d960c71b81565b34801561061557600080fd5b50610528610624366004614a4b565b611cd4565b34801561063557600080fd5b50610649610644366004614b6a565b611cf9565b604080519586526020860194909452928401919091526060830152608082015260a0016102c1565b34801561067d57600080fd5b506002546102fa9060801b81565b34801561069757600080fd5b506104b860095481565b3480156106ad57600080fd5b5061070b6106bc366004614928565b600c602052816000526040600020602052806000526040600020600091509150508060000154908060010154908060020154908060030154908060040154908060050154908060060154905087565b604080519788526020880196909652948601939093526060850191909152608084015260a083015260c082015260e0016102c1565b34801561074c57600080fd5b506001546102ad906001600160801b031681565b34801561076c57600080fd5b5061035a61077b366004614881565b6121e7565b34801561078c57600080fd5b506104b8600a5481565b3480156107a257600080fd5b506107d26107b1366004614a32565b600560205260009081526040902054608081811b91600160801b9004901b82565b6040516102c1929190614bc2565b3480156107ec57600080fd5b506104b8612722565b34801561080157600080fd5b506104b8610810366004614928565b6127c4565b34801561082157600080fd5b50610528610830366004614a4b565b6127f5565b34801561084157600080fd5b506102ad600181565b34801561085657600080fd5b50601054610411906001600160a01b031681565b34801561087657600080fd5b50600054610411906201000090046001600160a01b031681565b34801561089c57600080fd5b506104b860085481565b3480156108b257600080fd5b506102ad6127fd565b3480156108c757600080fd5b506002546102fa90600160801b900460801b81565b3480156108e857600080fd5b50601354610411906001600160a01b031681565b34801561090857600080fd5b50610938610917366004614881565b60076020526000908152604090208054600182015460029092015490919083565b604080519384526020840192909252908201526060016102c1565b61035a610961366004614a32565b612a1d565b34801561097257600080fd5b5061035a610981366004614a32565b6130fd565b34801561099257600080fd5b506104b8613246565b3480156109a757600080fd5b506109eb6109b6366004614a32565b600b60205260009081526040902080546001820154600283015460038401546004850154600590950154939492939192909186565b604080519687526020870195909552938501929092526060840152608083015260a082015260c0016102c1565b80336001600160a01b0382161480610a4057506000546201000090046001600160a01b031633145b610a9f5760405162461bcd60e51b815260206004820152602560248201527f6d73672e73656e646572206e6f7420636f6d6d6974746572206f72204175746f604482015264436c61696d60d81b60648201526084015b60405180910390fd5b601454600160a01b900460ff1615610aea5760405162461bcd60e51b815260206004820152600e60248201526d141bdbdb081a5cc81c185d5cd95960921b6044820152606401610a96565b610af3826121e7565b6001600160a01b0380831660008181526007602081815260408084208151606081018352815481526001820180548286015260028301805483860152601354898952969095529186905590859055918490555190949190911692917f0c7ef932d3b91976772937f18d5ef9b39a9930bef486b576c374f047c4b512dc91a2336001600160a01b038516148015610c0e5750600054604051631107d3c960e31b81526001600160a01b038681166004830152306024830152620100009092049091169063883e9e489060440160206040518083038186803b158015610bd657600080fd5b505afa158015610bea573d6000803e3d6000fd5b505050506040513d601f19601f82011682018060405250810190610c0e91906149e6565b15610c7a576000546040516307119aeb60e01b81526001600160a01b03868116600483015262010000909204909116906307119aeb90602401600060405180830381600087803b158015610c6157600080fd5b505af1158015610c75573d6000803e3d6000fd5b505050505b604082015115610cee57604082810151905163d0b06f0960e01b81526001600160a01b03868116600483015260248201929092529082169063d0b06f0990604401600060405180830381600087803b158015610cd557600080fd5b505af1158015610ce9573d6000803e3d6000fd5b505050505b815115610d6357815160405163110b1bed60e01b8152600160048201526001600160a01b03868116602483015260448201929092529082169063110b1bed90606401600060405180830381600087803b158015610d4a57600080fd5b505af1158015610d5e573d6000803e3d6000fd5b505050505b602082015115610dde57602082015160405163110b1bed60e01b8152600060048201526001600160a01b03868116602483015260448201929092529082169063110b1bed90606401600060405180830381600087803b158015610dc557600080fd5b505af1158015610dd9573d6000803e3d6000fd5b505050505b50505050565b6012546001600160a01b03163314610e0e5760405162461bcd60e51b8152600401610a9690614c3c565b604051636fedf26d60e11b81526004810182905273__$1c55304bb94fd620584ae538170217172c$__9063dfdbe4da9060240160206040518083038186803b158015610e5957600080fd5b505af4158015610e6d573d6000803e3d6000fd5b505050506040513d601f19601f82011682018060405250810190610e919190614a08565b60018054608092831c600160801b9081026001600160801b039092169190911791829055668075782dace9d960c71b910490911b6001600160801b0319161115610f125760405162461bcd60e51b81526020600482015260126024820152714d696e74696e6720666565203e203130302560701b6044820152606401610a96565b60405181907f07aefbcc0d8cdf34e241279c78d93d1df9540b5a60d320437958df12ef59e46390600090a250565b6012546001600160a01b03163314610f6a5760405162461bcd60e51b8152600401610a9690614c3c565b604051636fedf26d60e11b81526004810182905273__$1c55304bb94fd620584ae538170217172c$__9063dfdbe4da9060240160206040518083038186803b158015610fb557600080fd5b505af4158015610fc9573d6000803e3d6000fd5b505050506040513d601f19601f82011682018060405250810190610fed9190614a08565b60028054608092831c600160801b9081026001600160801b039092169190911791829055668075782dace9d960c71b910490911b6001600160801b03191611156110795760405162461bcd60e51b815260206004820152601d60248201527f4368616e676520496e74657276616c2065786365656473206c696d69740000006044820152606401610a96565b60405181907f1f609e633399cb8530717d1970d31255fae2af322c2c3b90793cc1c1a7fe88be90600090a250565b6011546001600160a01b03163314806110ca57506012546001600160a01b031633145b6111165760405162461bcd60e51b815260206004820152601860248201527f43616e6e6f742073657420666565436f6e74726f6c6c657200000000000000006044820152606401610a96565b601280546001600160a01b0319166001600160a01b0383169081179091556040517f4645d48e2e83635dc48865c27880f748bc610aab2e41ca3358057b565ff56a5790600090a250565b6011546001600160a01b031633146111ba5760405162461bcd60e51b815260206004820152601960248201527f6d73672e73656e646572206e6f7420676f7665726e616e6365000000000000006044820152606401610a96565b6014805460ff60a01b191690556040517fa45f47fdea8a1efdd9029a5691c7f759c32b7c698632b563573e155625d1693390600090a1565b6010546001600160a01b031633146112455760405162461bcd60e51b8152602060048201526016602482015275436f6d6d69747465723a206e6f7420666163746f727960501b6044820152606401610a96565b6001600160a01b03811661129b5760405162461bcd60e51b815260206004820152601d60248201527f4c657665726167656420706f6f6c2063616e6e6f74206265206e756c6c0000006044820152606401610a96565b601380546001600160a01b0319166001600160a01b0383169081179091556040805163369f189f60e11b81528151636d3e313e92600480840193919291829003018186803b1580156112ec57600080fd5b505afa158015611300573d6000803e3d6000fd5b505050506040513d601f19601f820116820180604052508101906113249190614954565b6113329060039060026147b3565b506040516001600160a01b038216907fa84ed99a050d1610bc3dddf2c220cd77842a3ab1a46664af49062a70417debdf90600090a250565b6003816002811061137a57600080fd5b01546001600160a01b0316905081565b6113ae60405180606001604052806000815260200160008152602001600081525090565b6001600160a01b0382166000818152600760209081526040808320815160608082018452825482526001808401548387015260029093015482850152835160e08101855292546001600160801b0316835282850186905282840186905282018590526080820185905260a0820185905260c08201859052948452600e8352818420805483518186028101860190945280845291949390919083018282801561147557602002820191906000526020600020905b815481526020019060010190808311611461575b5050835193945050600f83109150611490905057600f611492565b805b60ff1660c084015260005b8360c0015160ff168110156115c15760008382815181106114c0576114c0614e15565b6020026020010151905080600014156114d957506115b9565b6001600160a01b0388166000908152600c60209081526040808320848452825291829020825160e08101845281548152600180830154938201939093526002820154938101939093526003810154606084015260048101546080840152600581015460a08401526006015460c0830181905290546001600160801b031611156115b657600061156782613292565b905080600001518760200181815161157f9190614d62565b9052506020810151604088018051611598908390614d62565b90525060808101516060880180516115b1908390614d62565b905250505b50505b60010161149d565b506020830151845185906115d6908390614d62565b90525060408301516020850180516115ef908390614d62565b9052506060830151604085018051611608908390614d62565b9052509295945050505050565b6000600282600581111561162b5761162b614de9565b1480611649575060005b82600581111561164757611647614de9565b145b92915050565b600054610100900460ff1680611668575060005460ff16155b6116cb5760405162461bcd60e51b815260206004820152602e60248201527f496e697469616c697a61626c653a20636f6e747261637420697320616c72656160448201526d191e481a5b9a5d1a585b1a5e995960921b6064820152608401610a96565b600054610100900460ff161580156116ed576000805461ffff19166101011790555b6001600160a01b03891661173c5760405162461bcd60e51b8152602060048201526016602482015275119858dd1bdc9e4818d85b9b9bdd081899481b9d5b1b60521b6044820152606401610a96565b6001600160a01b0388166117925760405162461bcd60e51b815260206004820152601860248201527f4175746f436c61696d2063616e6e6f74206265206e756c6c00000000000000006044820152606401610a96565b6001600160a01b0386166117e85760405162461bcd60e51b815260206004820152601d60248201527f66656520636f6e74726f6c6c65722063616e6e6f74206265206e756c6c0000006044820152606401610a96565b6001600160a01b03851661183e5760405162461bcd60e51b815260206004820152601d60248201527f696e76617269616e74436865636b2063616e6e6f74206265206e756c6c0000006044820152606401610a96565b600180546001600160801b03191681179055601080546001600160a01b038b81166001600160a01b0319928316179092556014805492881692909116919091179055604051636fedf26d60e11b81526004810185905273__$1c55304bb94fd620584ae538170217172c$__9063dfdbe4da9060240160206040518083038186803b1580156118cb57600080fd5b505af41580156118df573d6000803e3d6000fd5b505050506040513d601f19601f820116820180604052508101906119039190614a08565b6001805460809290921c600160801b026001600160801b03909216919091179055604051636fedf26d60e11b81526004810184905273__$1c55304bb94fd620584ae538170217172c$__9063dfdbe4da9060240160206040518083038186803b15801561196f57600080fd5b505af4158015611983573d6000803e3d6000fd5b505050506040513d601f19601f820116820180604052508101906119a79190614a08565b600280546001600160801b03191660809290921c919091179055604051636fedf26d60e11b81526004810183905273__$1c55304bb94fd620584ae538170217172c$__9063dfdbe4da9060240160206040518083038186803b158015611a0c57600080fd5b505af4158015611a20573d6000803e3d6000fd5b505050506040513d601f19601f82011682018060405250810190611a449190614a08565b600280546001600160801b0316600160801b608093841c810291909117909155600154668075782dace9d960c71b6001600160801b03199290910490921b161115611ad15760405162461bcd60e51b815260206004820152601960248201527f4d696e74696e67206665652065786365656473206c696d6974000000000000006044820152606401610a96565b60025466201bb1a2bc2ec560c91b60809190911b6001600160801b0319161115611b3d5760405162461bcd60e51b815260206004820152601960248201527f4275726e696e67206665652065786365656473206c696d6974000000000000006044820152606401610a96565b600254668075782dace9d960c71b600160801b90910460801b6001600160801b0319161115611bae5760405162461bcd60e51b815260206004820152601d60248201527f4368616e676520496e74657276616c2065786365656473206c696d69740000006044820152606401610a96565b601280546001600160a01b038089166001600160a01b031992831617909255600080548b8416620100000262010000600160b01b031990911617905560118054928a16929091169190911790558015611c0d576000805461ff00191690555b505050505050505050565b6014546001600160a01b03163314611c725760405162461bcd60e51b815260206004820152601d60248201527f6d73672e73656e646572206e6f7420696e76617269616e74436865636b0000006044820152606401610a96565b6014805460ff60a01b1916600160a01b1790556040517f9e87fac88ff661f02d44f95383c817fece4bce600a3dab7a54406878b965e75290600090a1565b60006002826005811115611cc657611cc6614de9565b148061164957506003611635565b600060035b826005811115611ceb57611ceb614de9565b148061164957506001611635565b60135460009081908190819081906001600160a01b03163314611d5e5760405162461bcd60e51b815260206004820152601c60248201527f6d73672e73656e646572206e6f74206c6576657261676564506f6f6c000000006044820152606401610a96565b6040805160a081018083526003546318160ddd60e01b90915291516001926000929182916001600160a01b0316906318160ddd9060a480850191602091818703018186803b158015611daf57600080fd5b505afa158015611dc3573d6000803e3d6000fd5b505050506040513d601f19601f82011682018060405250810190611de79190614aff565b8152602001600360010160009054906101000a90046001600160a01b03166001600160a01b03166318160ddd6040518163ffffffff1660e01b815260040160206040518083038186803b158015611e3d57600080fd5b505afa158015611e51573d6000803e3d6000fd5b505050506040513d601f19601f82011682018060405250810190611e759190614aff565b81526000602080830182905260408084018390526060938401929092528351918401919091528201519082015290505b600f60ff83161161202e57611ebd60ff83168b614d7a565b611ec7908c614d62565b421061201e57600180546001600160801b03908116608084810182815260028054600094855260066020908152604080872080546001600160801b031916939098169290921790965591518452600b855292819020815160c0810183528154815295810154948601949094529183015491840191909152600382015460608401526004820154908301526005015460a0820152611f6690828b8b61341a565b602085810193909352928452608080850151600254604051921b6001600160801b0319168252919c50929a50917f260463f9bbb6d40c58e9fc4e09a71c3f80fc18d818d6d9d5df86b2443722a59f910160405180910390a260808101516000908152600b60205260408120818155600180820183905560028201839055600382018390556004820183905560059091019190915580546001600160801b038082168301166001600160801b0319909116179055612023565b61202e565b600182019150611ea5565b8051604051635cf4ee9160e01b8152600481018b905260248101919091526121599073__$1c55304bb94fd620584ae538170217172c$__90635cf4ee919060440160206040518083038186803b15801561208757600080fd5b505af415801561209b573d6000803e3d6000fd5b505050506040513d601f19601f820116820180604052508101906120bf9190614a08565b6020830151604051635cf4ee9160e01b815273__$1c55304bb94fd620584ae538170217172c$__91635cf4ee9191612104918e91600401918252602082015260400190565b60206040518083038186803b15801561211c57600080fd5b505af4158015612130573d6000803e3d6000fd5b505050506040513d601f19601f820116820180604052508101906121549190614a08565b613bfb565b612164600183614db0565b6121719060ff168b614d7a565b61217b908c614d62565b42106121aa5761218c600183614db0565b6121999060ff168b614d7a565b6121a3908c614d62565b9a506121ae565b429a505b604081015181516121bf9190614d99565b816060015182602001516121d39190614d99565b909c909b999a509798979650505050505050565b6001600160a01b0381166000818152600760209081526040808320815160e0810183526001546001600160801b03168152808401859052808301859052606081018590526080810185905260a0810185905260c08101859052948452600e835281842080548351818602810186019094528084529195949390919083018282801561229157602002820191906000526020600020905b81548152602001906001019080831161227d575b5050835193945050600f831091506122ac905057600f6122ae565b805b60ff1660c084015260005b8360c0015160ff168110156125455760008382815181106122dc576122dc614e15565b6020026020010151905080600014156122f5575061253d565b6001600160a01b0387166000908152600c60209081526040808320848452825291829020825160e08101845281548152600180830154938201939093526002820154938101939093526003810154606084015260048101546080840152600581015460a08401526006015460c0830181905290546001600160801b031611156124fe57600061238382613292565b905080600001518760200181815161239b9190614d62565b90525060208101516040880180516123b4908390614d62565b90525060808101516060880180516123cd908390614d62565b90525060408101516080880180516123e6908390614d62565b905250606081015160a0880180516123ff908390614d62565b9052506001600160a01b0389166000818152600c6020908152604080832087845282528083208381556001810184905560028101849055600381018490556004810184905560058101849055600601839055928252600e905220600f8611801561246a575080546001105b80156124825750805461247f90600190614d99565b85105b156124d1578054819061249790600190614d99565b815481106124a7576124a7614e15565b90600052602060002001548186815481106124c4576124c4614e15565b6000918252602090912001555b808054806124e1576124e1614dff565b60019003818190600052602060002001600090559055505061253a565b600f841161253a57600f85848151811061251a5761251a614e15565b602090810291909101810151825460018101845560009384529190922001555b50505b6001016122b9565b50600f8111612582576001600160a01b0385166000908152600e60205260409020600f805461257592919061480b565b50612582600f600061484b565b826020015184600001600082825461259a9190614d62565b909155505060408301516001850180546000906125b8908490614d62565b909155505060608301516002850180546000906125d6908490614d62565b909155505060135460408051630f77314d60e31b815281516001600160a01b039093169260009283928592637bb98a6892600480840193919291829003018186803b15801561262457600080fd5b505afa158015612638573d6000803e3d6000fd5b505050506040513d601f19601f8201168201806040525081019061265c9190614b18565b91509150826001600160a01b0316633c3f825287608001518361267f9190614d62565b60a089015161268e9086614d62565b6040516001600160e01b031960e085901b16815260048101929092526024820152604401600060405180830381600087803b1580156126cc57600080fd5b505af11580156126e0573d6000803e3d6000fd5b50506040516001600160a01b038b1692507fdefa4140341b4fd283af41700779361dc94f34ae245a186b3b9c187033c065549150600090a25050505050505050565b60015460405163aeb64d7d60e01b8152600160801b90910460801b6001600160801b031916600482015260009073__$1c55304bb94fd620584ae538170217172c$__9063aeb64d7d906024015b60206040518083038186803b15801561278757600080fd5b505af415801561279b573d6000803e3d6000fd5b505050506040513d601f19601f820116820180604052508101906127bf9190614aff565b905090565b600e60205281600052604060002081815481106127e057600080fd5b90600052602060002001600091509150505481565b600080611cd9565b60135460408051637de93f9360e01b815290516000926001600160a01b03169173__$1c55304bb94fd620584ae538170217172c$__9163ff9afe879142918591637de93f93916004808301926020929190829003018186803b15801561286257600080fd5b505afa158015612876573d6000803e3d6000fd5b505050506040513d601f19601f8201168201806040525081019061289a9190614aff565b846001600160a01b0316637bfe789a6040518163ffffffff1660e01b815260040160206040518083038186803b1580156128d357600080fd5b505afa1580156128e7573d6000803e3d6000fd5b505050506040513d601f19601f8201168201806040525081019061290b9190614b9c565b856001600160a01b031663fd2c80ae6040518163ffffffff1660e01b815260040160206040518083038186803b15801561294457600080fd5b505afa158015612958573d6000803e3d6000fd5b505050506040513d601f19601f8201168201806040525081019061297c9190614b9c565b60015460405160e087901b6001600160e01b03191681526004810195909552602485019390935263ffffffff91821660448501521660648301526001600160801b0316608482015260a40160206040518083038186803b1580156129df57600080fd5b505af41580156129f3573d6000803e3d6000fd5b505050506040513d601f19601f82011682018060405250810190612a179190614aff565b91505090565b6001600160801b03811660ff608083901c811690608884901c811690609085901c1683612a8c5760405162461bcd60e51b815260206004820152601760248201527f416d6f756e74206d757374206e6f74206265207a65726f0000000000000000006044820152606401610a96565b612a95336121e7565b60135460408051637e96405760e11b815290516001600160a01b0390921691600091839163fd2c80ae91600480820192602092909190829003018186803b158015612adf57600080fd5b505afa158015612af3573d6000803e3d6000fd5b505050506040513d601f19601f82011682018060405250810190612b179190614b9c565b63ffffffff1690506000826001600160a01b0316637de93f936040518163ffffffff1660e01b815260040160206040518083038186803b158015612b5a57600080fd5b505afa158015612b6e573d6000803e3d6000fd5b505050506040513d601f19601f82011682018060405250810190612b929190614aff565b90506000836001600160a01b0316637bfe789a6040518163ffffffff1660e01b815260040160206040518083038186803b158015612bcf57600080fd5b505afa158015612be3573d6000803e3d6000fd5b505050506040513d601f19601f82011682018060405250810190612c079190614b9c565b60015460405160016265017960e01b031981524260048201526024810185905263ffffffff9290921660448301819052606483018690526001600160801b039091166084830152915060009073__$1c55304bb94fd620584ae538170217172c$__9063ff9afe879060a40160206040518083038186803b158015612c8a57600080fd5b505af4158015612c9e573d6000803e3d6000fd5b505050506040513d601f19601f82011682018060405250810190612cc29190614aff565b6000818152600b60209081526040808320338452600c835281842085855290925290912060068101549293509091612cfc57600681018390555b336000908152600e6020526040902054801580612d4d5750336000908152600e602052604090208490612d30600184614d99565b81548110612d4057612d40614e15565b9060005260206000200154105b15612d7557336000908152600e60209081526040822080546001810182559083529120018490555b604051633199848d60e11b81523090636333091a90612d98908e90600401614bdd565b60206040518083038186803b158015612db057600080fd5b505afa158015612dc4573d6000803e3d6000fd5b505050506040513d601f19601f82011682018060405250810190612de891906149e6565b8015612df15750895b15612e8057336000908152600760205260409020600201548c1115612e585760405162461bcd60e51b815260206004820152601e60248201527f496e73756666696369656e7420736574746c656d656e7420746f6b656e7300006044820152606401610a96565b33600090815260076020526040812060020180548e9290612e7a908490614d99565b90915550505b612e8e888c8e8d868861402f565b604051633199848d60e11b81523090636333091a90612eb1908e90600401614bdd565b60206040518083038186803b158015612ec957600080fd5b505afa158015612edd573d6000803e3d6000fd5b505050506040513d601f19601f82011682018060405250810190612f0191906149e6565b8015612f0b575089155b15612f7d57601354604051630348287760e21b81523360048201526001600160a01b039182166024820152604481018e905290891690630d20a1dc90606401600060405180830381600087803b158015612f6457600080fd5b505af1158015612f78573d6000803e3d6000fd5b505050505b881561302e5734612fc55760405162461bcd60e51b81526020600482015260126024820152714d7573742070617920666f7220636c61696d60701b6044820152606401610a96565b600054604051634da17a3f60e11b8152336004820152620100009091046001600160a01b031690639b42f47e9034906024016000604051808303818588803b15801561301057600080fd5b505af1158015613024573d6000803e3d6000fd5b5050505050613075565b34156130755760405162461bcd60e51b81526020600482015260166024820152756d73672e76616c7565206d757374206265207a65726f60501b6044820152606401610a96565b8a600581111561308757613087614de9565b600154604080518781528d151560208201528c151591810191909152600160801b909104608090811b6001600160801b03191660608301528e9133917f04f9dae5361dfaa5b3f324fc0af5e71bcb4d76e8324ad9ce78d70496c548d503910160405180910390a450505050505050505050505050565b6012546001600160a01b031633146131275760405162461bcd60e51b8152600401610a9690614c3c565b604051636fedf26d60e11b81526004810182905273__$1c55304bb94fd620584ae538170217172c$__9063dfdbe4da9060240160206040518083038186803b15801561317257600080fd5b505af4158015613186573d6000803e3d6000fd5b505050506040513d601f19601f820116820180604052508101906131aa9190614a08565b60028054608092831c6001600160801b0319918216179182905566201bb1a2bc2ec560c91b9190921b909116106132185760405162461bcd60e51b81526020600482015260126024820152714275726e696e6720666565203e3d2031302560701b6044820152606401610a96565b60405181907f9bd544d4dd4e5359b6126812d7f52828638adf3d7beab61310fab58b27d811cc90600090a250565b60025460405163aeb64d7d60e01b815260809190911b6001600160801b031916600482015260009073__$1c55304bb94fd620584ae538170217172c$__9063aeb64d7d9060240161276f565b6132c46040518060a0016040528060008152602001600081526020016000815260200160008152602001600081525090565b604080516101808101825260c08085018051600090815260056020818152868320546001600160801b0319608091821b811688528551855292825287842054600160801b90819004821b841683890152600154908104821b8416888a01526001600160801b03166060808901919091528551828901528a5160a0808a0191909152838c0151978901979097528a89015160e08901528a015161010088015294890151610120870152848901516101408701529251825260069092528490205490911b166101608201529051639eb17fa360e01b815273__$1c55304bb94fd620584ae538170217172c$__90639eb17fa3906133c3908490600401614c73565b60a06040518083038186803b1580156133db57600080fd5b505af41580156133ef573d6000803e3d6000fd5b505050506040513d601f19601f820116820180604052508101906134139190614a8f565b9392505050565b6080830180516000908152600b602052604080822060020154925182528120546008549192839283928392916134509190614d99565b61345a9190614d99565b6008819055506000604051806101000160405280878b6040015161347e9190614d62565b8152602001888b600001516134939190614d62565b8152602001600081526020016000815260200160008152602001600081526020018a60a001518b602001516134c89190614d62565b81526020018a608001518b606001516134e19190614d62565b8152509050600073__$1c55304bb94fd620584ae538170217172c$__635cf4ee9189600a548c600001516135159190614d62565b6040516001600160e01b031960e085901b1681526004810192909252602482015260440160206040518083038186803b15801561355157600080fd5b505af4158015613565573d6000803e3d6000fd5b505050506040513d601f19601f820116820180604052508101906135899190614a08565b9050600073__$1c55304bb94fd620584ae538170217172c$__635cf4ee91896009548d602001516135ba9190614d62565b6040516001600160e01b031960e085901b1681526004810192909252602482015260440160206040518083038186803b1580156135f657600080fd5b505af415801561360a573d6000803e3d6000fd5b505050506040513d601f19601f8201168201806040525081019061362e9190614a08565b90506040518060400160405280836001600160801b0319168152602001826001600160801b031916815250600560008c60800151815260200190815260200160002060008201518160000160006101000a8154816001600160801b03021916908360801c021790555060208201518160000160106101000a8154816001600160801b03021916908360801c0217905550905050600073__$1c55304bb94fd620584ae538170217172c$__63839dff3d8d60a0015185600260009054906101000a900460801b600160109054906101000a900460801b6040518563ffffffff1660e01b815260040161374594939291909384526001600160801b03199283166020850152908216604084015216606082015260800190565b60606040518083038186803b15801561375d57600080fd5b505af4158015613771573d6000803e3d6000fd5b505050506040513d601f19601f820116820180604052508101906137959190614b3c565b505060808501819052845190915084906137b0908390614d62565b90525060808b81015160025460015460405163839dff3d60e01b815260048101939093526001600160801b0319858116602485015291841b82166044840152600160801b900490921b909116606482015260009073__$1c55304bb94fd620584ae538170217172c$__9063839dff3d9060840160606040518083038186803b15801561383b57600080fd5b505af415801561384f573d6000803e3d6000fd5b505050506040513d601f19601f820116820180604052508101906138739190614b3c565b505060a0850181905260208501805191925090613891908390614d62565b905250895160a08401518c5173__$1c55304bb94fd620584ae538170217172c$__9263ab41556f9290916138c59190614d62565b600a546040516001600160e01b031960e086901b16815260048101939093526024830191909152604482018d9052606482015260840160206040518083038186803b15801561391357600080fd5b505af4158015613927573d6000803e3d6000fd5b505050506040513d601f19601f8201168201806040525081019061394b9190614aff565b6040848101919091528a5160c0850151600a54925163debb52df60e01b815260048101929092526024820152604481018b9052606481019190915273__$1c55304bb94fd620584ae538170217172c$__9063debb52df9060840160206040518083038186803b1580156139bd57600080fd5b505af41580156139d1573d6000803e3d6000fd5b505050506040513d601f19601f820116820180604052508101906139f59190614aff565b83602001818151613a069190614d99565b9150818152505073__$1c55304bb94fd620584ae538170217172c$__63ab41556f8b6020015185608001518e60400151613a409190614d62565b6009546040516001600160e01b031960e086901b16815260048101939093526024830191909152604482018c9052606482015260840160206040518083038186803b158015613a8e57600080fd5b505af4158015613aa2573d6000803e3d6000fd5b505050506040513d601f19601f82011682018060405250810190613ac69190614aff565b606084015260208a015160e084015160095460405163debb52df60e01b815260048101939093526024830191909152604482018a9052606482015273__$1c55304bb94fd620584ae538170217172c$__9063debb52df9060840160206040518083038186803b158015613b3857600080fd5b505af4158015613b4c573d6000803e3d6000fd5b505050506040513d601f19601f82011682018060405250810190613b709190614aff565b83518490613b7f908390614d99565b90525060c0830151600a8054600090613b99908490614d99565b909155505060e083015160098054600090613bb5908490614d99565b909155505060408301518a51613bcb9190614d62565b83606001518b60200151613bdf9190614d62565b60208501519451919d909c50939a509850919650505050505050565b6040516345e7ef9b60e01b815260009073__$1c55304bb94fd620584ae538170217172c$__906345e7ef9b90613c379086908690600401614bc2565b60206040518083038186803b158015613c4f57600080fd5b505af4158015613c63573d6000803e3d6000fd5b505050506040513d601f19601f82011682018060405250810190613c879190614a08565b604051630308593b60e31b815290915073__$1c55304bb94fd620584ae538170217172c$__90631842c9d890613cc890613fff60f01b908590600401614bc2565b60206040518083038186803b158015613ce057600080fd5b505af4158015613cf4573d6000803e3d6000fd5b505050506040513d601f19601f82011682018060405250810190613d189190614a6c565b60000b6000191415613eab57600154600254604051630308593b60e31b815273__$1c55304bb94fd620584ae538170217172c$__92631842c9d892613d7592600160801b92839004608090811b9390920490911b90600401614bc2565b60206040518083038186803b158015613d8d57600080fd5b505af4158015613da1573d6000803e3d6000fd5b505050506040513d601f19601f82011682018060405250810190613dc59190614a6c565b60000b6000191415613de557600180546001600160801b03169055505050565b600154600254604051630e8418dd60e01b815273__$1c55304bb94fd620584ae538170217172c$__92630e8418dd92613e3692600160801b92839004608090811b9390920490911b90600401614bc2565b60206040518083038186803b158015613e4e57600080fd5b505af4158015613e62573d6000803e3d6000fd5b505050506040513d601f19601f82011682018060405250810190613e869190614a08565b600160106101000a8154816001600160801b03021916908360801c0217905550505050565b600154600254604051635b597cfb60e11b815273__$1c55304bb94fd620584ae538170217172c$__9263b6b2f9f692613efc92600160801b92839004608090811b9390920490911b90600401614bc2565b60206040518083038186803b158015613f1457600080fd5b505af4158015613f28573d6000803e3d6000fd5b505050506040513d601f19601f82011682018060405250810190613f4c9190614a08565b600180546001600160801b0316600160801b608093841c81029190911791829055604051630308593b60e31b815273__$1c55304bb94fd620584ae538170217172c$__93631842c9d893613fb3939004901b90668075782dace9d960c71b90600401614bc2565b60206040518083038186803b158015613fcb57600080fd5b505af4158015613fdf573d6000803e3d6000fd5b505050506040513d601f19601f820116820180604052508101906140039190614a6c565b60000b6001141561402a57600180546001600160801b0316668075782dace9d960c71b1790555b505050565b336000908152600760209081526040808320815160608101835281548152600182015493810193909352600201548282015251633199848d60e11b81529091903090636333091a90614085908a90600401614bdd565b60206040518083038186803b15801561409d57600080fd5b505afa1580156140b1573d6000803e3d6000fd5b505050506040513d601f19601f820116820180604052508101906140d591906149e6565b156141a05760015460405163aacf0ecb60e01b8152600160801b90910460801b6001600160801b03191660048201526024810187905273__$1c55304bb94fd620584ae538170217172c$__9063aacf0ecb9060440160206040518083038186803b15801561414257600080fd5b505af4158015614156573d6000803e3d6000fd5b505050506040513d601f19601f8201168201806040525081019061417a9190614aff565b90506141868187614d99565b9550856008600082825461419a9190614d62565b90915550505b60028760058111156141b4576141b4614de9565b14156142dc57600080896001600160a01b0316637bb98a686040518163ffffffff1660e01b8152600401604080518083038186803b1580156141f557600080fd5b505afa158015614209573d6000803e3d6000fd5b505050506040513d601f19601f8201168201806040525081019061422d9190614b18565b91509150878660000160008282546142459190614d62565b909155505084548890869060009061425e908490614d62565b90915550506001600160a01b038a16633c3f825261427c8584614d62565b846040518363ffffffff1660e01b81526004016142a3929190918252602082015260400190565b600060405180830381600087803b1580156142bd57600080fd5b505af11580156142d1573d6000803e3d6000fd5b505050505050610dd9565b60038760058111156142f0576142f0614de9565b141561442c5785600a60008282546143089190614d62565b92505081905550858460010160008282546143239190614d62565b925050819055508583600101600082825461433e9190614d62565b909155505084156143fb57815186111561436a5760405162461bcd60e51b8152600401610a9690614c05565b3360009081526007602052604081208054889290614389908490614d99565b90915550506013546040516387f9ca5d60e01b81526001600160a01b03808b16926387f9ca5d926143c4926000928c92911690600401614d38565b600060405180830381600087803b1580156143de57600080fd5b505af11580156143f2573d6000803e3d6000fd5b50505050610dd9565b6040516387f9ca5d60e01b81526001600160a01b038916906387f9ca5d906143c4906000908a903390600401614d38565b600087600581111561444057614440614de9565b141561453457600080896001600160a01b0316637bb98a686040518163ffffffff1660e01b8152600401604080518083038186803b15801561448157600080fd5b505afa158015614495573d6000803e3d6000fd5b505050506040513d601f19601f820116820180604052508101906144b99190614b18565b91509150878660020160008282546144d19190614d62565b92505081905550878560020160008282546144ec9190614d62565b90915550506001600160a01b038a16633c3f82528261450b8686614d62565b6040516001600160e01b031960e085901b168152600481019290925260248201526044016142a3565b600187600581111561454857614548614de9565b14156146535785600960008282546145609190614d62565b925050819055508584600301600082825461457b9190614d62565b92505081905550858360030160008282546145969190614d62565b909155505084156146225781602001518611156145c55760405162461bcd60e51b8152600401610a9690614c05565b33600090815260076020526040812060010180548892906145e7908490614d99565b90915550506013546040516387f9ca5d60e01b81526001600160a01b03808b16926387f9ca5d926143c4926001928c92911690600401614d38565b6040516387f9ca5d60e01b81526001600160a01b038916906387f9ca5d906143c4906001908a903390600401614d38565b600487600581111561466757614667614de9565b14156146b55785600a600082825461467f9190614d62565b925050819055508584600501600082825461469a9190614d62565b925050819055508583600501600082825461433e9190614d62565b60058760058111156146c9576146c9614de9565b1415610dd95785600960008282546146e19190614d62565b92505081905550858460040160008282546146fc9190614d62565b92505081905550858360040160008282546147179190614d62565b909155505084156147465781602001518611156145c55760405162461bcd60e51b8152600401610a9690614c05565b6040516387f9ca5d60e01b81526001600160a01b038916906387f9ca5d90614777906001908a903390600401614d38565b600060405180830381600087803b15801561479157600080fd5b505af11580156147a5573d6000803e3d6000fd5b505050505050505050505050565b82600281019282156147fb579160200282015b828111156147fb57825182546001600160a01b0319166001600160a01b039091161782556020909201916001909101906147c6565b5061480792915061486c565b5090565b8280548282559060005260206000209081019282156147fb5760005260206000209182015b828111156147fb578254825591600101919060010190614830565b5080546000825590600052602060002090810190614869919061486c565b50565b5b80821115614807576000815560010161486d565b60006020828403121561489357600080fd5b813561341381614e41565b600080600080600080600080610100898b0312156148bb57600080fd5b88356148c681614e41565b975060208901356148d681614e41565b965060408901356148e681614e41565b955060608901356148f681614e41565b9450608089013561490681614e41565b979a969950949793969560a0850135955060c08501359460e001359350915050565b6000806040838503121561493b57600080fd5b823561494681614e41565b946020939093013593505050565b60006040828403121561496657600080fd5b82601f83011261497557600080fd5b6040516040810181811067ffffffffffffffff8211171561499857614998614e2b565b80604052508083856040860111156149af57600080fd5b60005b60028110156149db5781516149c681614e41565b835260209283019291909101906001016149b2565b509195945050505050565b6000602082840312156149f857600080fd5b8151801515811461341357600080fd5b600060208284031215614a1a57600080fd5b81516001600160801b03198116811461341357600080fd5b600060208284031215614a4457600080fd5b5035919050565b600060208284031215614a5d57600080fd5b81356006811061341357600080fd5b600060208284031215614a7e57600080fd5b81518060000b811461341357600080fd5b600060a08284031215614aa157600080fd5b60405160a0810181811067ffffffffffffffff82111715614ac457614ac4614e2b565b806040525082518152602083015160208201526040830151604082015260608301516060820152608083015160808201528091505092915050565b600060208284031215614b1157600080fd5b5051919050565b60008060408385031215614b2b57600080fd5b505080516020909101519092909150565b600080600060608486031215614b5157600080fd5b8351925060208401519150604084015190509250925092565b60008060008060808587031215614b8057600080fd5b5050823594602084013594506040840135936060013592509050565b600060208284031215614bae57600080fd5b815163ffffffff8116811461341357600080fd5b6001600160801b031992831681529116602082015260400190565b6020810160068310614bff57634e487b7160e01b600052602160045260246000fd5b91905290565b60208082526018908201527f496e73756666696369656e7420706f6f6c20746f6b656e730000000000000000604082015260600190565b6020808252601d908201527f6d73672e73656e646572206e6f742066656520636f6e74726f6c6c6572000000604082015260600190565b81516001600160801b031916815261018081016020830151614ca160208401826001600160801b0319169052565b506040830151614cbd60408401826001600160801b0319169052565b50606083015160608301526080830151608083015260a083015160a083015260c083015160c083015260e083015160e083015261010080840151818401525061012080840151818401525061014080840151818401525061016080840151614d30828501826001600160801b0319169052565b505092915050565b6001600160801b0393909316835260208301919091526001600160a01b0316604082015260600190565b60008219821115614d7557614d75614dd3565b500190565b6000816000190483118215151615614d9457614d94614dd3565b500290565b600082821015614dab57614dab614dd3565b500390565b600060ff821660ff841680821015614dca57614dca614dd3565b90039392505050565b634e487b7160e01b600052601160045260246000fd5b634e487b7160e01b600052602160045260246000fd5b634e487b7160e01b600052603160045260246000fd5b634e487b7160e01b600052603260045260246000fd5b634e487b7160e01b600052604160045260246000fd5b6001600160a01b038116811461486957600080fdfea2646970667358221220fcdc15ab6ffdaa3d60fbfc02b8d09616f33ca87e3651ff5379c69e2fefb2187164736f6c63430008070033",
  "linkReferences": {
    "contracts/libraries/PoolSwapLibrary.sol": {
      "PoolSwapLibrary": [
        {
          "length": 20,
          "start": 3670
        },
        {
          "length": 20,
          "start": 4018
        },
        {
          "length": 20,
          "start": 6344
        },
        {
          "length": 20,
          "start": 6508
        },
        {
          "length": 20,
          "start": 6665
        },
        {
          "length": 20,
          "start": 8324
        },
        {
          "length": 20,
          "start": 8453
        },
        {
          "length": 20,
          "start": 10115
        },
        {
          "length": 20,
          "start": 10321
        },
        {
          "length": 20,
          "start": 11399
        },
        {
          "length": 20,
          "start": 12655
        },
        {
          "length": 20,
          "start": 12962
        },
        {
          "length": 20,
          "start": 13261
        },
        {
          "length": 20,
          "start": 13596
        },
        {
          "length": 20,
          "start": 13761
        },
        {
          "length": 20,
          "start": 14071
        },
        {
          "length": 20,
          "start": 14392
        },
        {
          "length": 20,
          "start": 14545
        },
        {
          "length": 20,
          "start": 14778
        },
        {
          "length": 20,
          "start": 14913
        },
        {
          "length": 20,
          "start": 15157
        },
        {
          "length": 20,
          "start": 15423
        },
        {
          "length": 20,
          "start": 15563
        },
        {
          "length": 20,
          "start": 15723
        },
        {
          "length": 20,
          "start": 15916
        },
        {
          "length": 20,
          "start": 16114
        },
        {
          "length": 20,
          "start": 16302
        },
        {
          "length": 20,
          "start": 16703
        }
      ]
    }
  },
  "deployedLinkReferences": {
    "contracts/libraries/PoolSwapLibrary.sol": {
      "PoolSwapLibrary": [
        {
          "length": 20,
          "start": 3620
        },
        {
          "length": 20,
          "start": 3968
        },
        {
          "length": 20,
          "start": 6294
        },
        {
          "length": 20,
          "start": 6458
        },
        {
          "length": 20,
          "start": 6615
        },
        {
          "length": 20,
          "start": 8274
        },
        {
          "length": 20,
          "start": 8403
        },
        {
          "length": 20,
          "start": 10065
        },
        {
          "length": 20,
          "start": 10271
        },
        {
          "length": 20,
          "start": 11349
        },
        {
          "length": 20,
          "start": 12605
        },
        {
          "length": 20,
          "start": 12912
        },
        {
          "length": 20,
          "start": 13211
        },
        {
          "length": 20,
          "start": 13546
        },
        {
          "length": 20,
          "start": 13711
        },
        {
          "length": 20,
          "start": 14021
        },
        {
          "length": 20,
          "start": 14342
        },
        {
          "length": 20,
          "start": 14495
        },
        {
          "length": 20,
          "start": 14728
        },
        {
          "length": 20,
          "start": 14863
        },
        {
          "length": 20,
          "start": 15107
        },
        {
          "length": 20,
          "start": 15373
        },
        {
          "length": 20,
          "start": 15513
        },
        {
          "length": 20,
          "start": 15673
        },
        {
          "length": 20,
          "start": 15866
        },
        {
          "length": 20,
          "start": 16064
        },
        {
          "length": 20,
          "start": 16252
        },
        {
          "length": 20,
          "start": 16653
        }
      ]
    }
  }
}