{
  "_format": "hh-sol-artifact-1",
  "contractName": "PoolKeeper",
  "sourceName": "contracts/implementation/PoolKeeper.sol",
  "abi": [
    {
      "inputs": [
        {
          "internalType": "address",
          "name": "_factory",
          "type": "address"
        }
      ],
      "stateMutability": "nonpayable",
      "type": "constructor"
    },
    {
      "anonymous": false,
      "inputs": [
        {
          "indexed": true,
          "internalType": "address",
          "name": "factory",
          "type": "address"
        }
      ],
      "name": "FactoryChanged",
      "type": "event"
    },
    {
      "anonymous": false,
      "inputs": [
        {
          "indexed": true,
          "internalType": "uint256",
          "name": "price",
          "type": "uint256"
        }
      ],
      "name": "GasPriceChanged",
      "type": "event"
    },
    {
      "anonymous": false,
      "inputs": [
        {
          "indexed": true,
          "internalType": "address",
          "name": "_pool",
          "type": "address"
        },
        {
          "indexed": true,
          "internalType": "address",
          "name": "keeper",
          "type": "address"
        },
        {
          "indexed": false,
          "internalType": "uint256",
          "name": "reward",
          "type": "uint256"
        }
      ],
      "name": "KeeperPaid",
      "type": "event"
    },
    {
      "anonymous": false,
      "inputs": [
        {
          "indexed": true,
          "internalType": "address",
          "name": "_pool",
          "type": "address"
        },
        {
          "indexed": true,
          "internalType": "address",
          "name": "keeper",
          "type": "address"
        },
        {
          "indexed": false,
          "internalType": "uint256",
          "name": "expectedReward",
          "type": "uint256"
        }
      ],
      "name": "KeeperPaymentError",
      "type": "event"
    },
    {
      "anonymous": false,
      "inputs": [
        {
          "indexed": true,
          "internalType": "address",
          "name": "oldKeeperRewards",
          "type": "address"
        },
        {
          "indexed": true,
          "internalType": "address",
          "name": "newKeeperRewards",
          "type": "address"
        }
      ],
      "name": "KeeperRewardsSet",
      "type": "event"
    },
    {
      "anonymous": false,
      "inputs": [
        {
          "indexed": true,
          "internalType": "address",
          "name": "previousOwner",
          "type": "address"
        },
        {
          "indexed": true,
          "internalType": "address",
          "name": "newOwner",
          "type": "address"
        }
      ],
      "name": "OwnershipTransferred",
      "type": "event"
    },
    {
      "anonymous": false,
      "inputs": [
        {
          "indexed": true,
          "internalType": "address",
          "name": "poolAddress",
          "type": "address"
        },
        {
          "indexed": true,
          "internalType": "int256",
          "name": "firstPrice",
          "type": "int256"
        }
      ],
      "name": "PoolAdded",
      "type": "event"
    },
    {
      "anonymous": false,
      "inputs": [
        {
          "indexed": true,
          "internalType": "address",
          "name": "pool",
          "type": "address"
        },
        {
          "indexed": false,
          "internalType": "string",
          "name": "reason",
          "type": "string"
        }
      ],
      "name": "PoolUpkeepError",
      "type": "event"
    },
    {
      "anonymous": false,
      "inputs": [
        {
          "indexed": true,
          "internalType": "address",
          "name": "pool",
          "type": "address"
        },
        {
          "indexed": false,
          "internalType": "bytes",
          "name": "data",
          "type": "bytes"
        },
        {
          "indexed": true,
          "internalType": "int256",
          "name": "startPrice",
          "type": "int256"
        },
        {
          "indexed": true,
          "internalType": "int256",
          "name": "endPrice",
          "type": "int256"
        }
      ],
      "name": "UpkeepSuccessful",
      "type": "event"
    },
    {
      "inputs": [
        {
          "internalType": "address[]",
          "name": "_pools",
          "type": "address[]"
        }
      ],
      "name": "checkUpkeepMultiplePools",
      "outputs": [
        {
          "internalType": "bool",
          "name": "",
          "type": "bool"
        }
      ],
      "stateMutability": "view",
      "type": "function"
    },
    {
      "inputs": [
        {
          "internalType": "address",
          "name": "",
          "type": "address"
        }
      ],
      "name": "executionPrice",
      "outputs": [
        {
          "internalType": "int256",
          "name": "",
          "type": "int256"
        }
      ],
      "stateMutability": "view",
      "type": "function"
    },
    {
      "inputs": [],
      "name": "factory",
      "outputs": [
        {
          "internalType": "contract IPoolFactory",
          "name": "",
          "type": "address"
        }
      ],
      "stateMutability": "view",
      "type": "function"
    },
    {
      "inputs": [],
      "name": "gasPrice",
      "outputs": [
        {
          "internalType": "uint256",
          "name": "",
          "type": "uint256"
        }
      ],
      "stateMutability": "view",
      "type": "function"
    },
    {
      "inputs": [
        {
          "internalType": "address",
          "name": "_pool",
          "type": "address"
        }
      ],
      "name": "isUpkeepRequiredSinglePool",
      "outputs": [
        {
          "internalType": "bool",
          "name": "",
          "type": "bool"
        }
      ],
      "stateMutability": "view",
      "type": "function"
    },
    {
      "inputs": [],
      "name": "keeperRewards",
      "outputs": [
        {
          "internalType": "address",
          "name": "",
          "type": "address"
        }
      ],
      "stateMutability": "view",
      "type": "function"
    },
    {
      "inputs": [
        {
          "internalType": "address",
          "name": "_poolAddress",
          "type": "address"
        }
      ],
      "name": "newPool",
      "outputs": [],
      "stateMutability": "nonpayable",
      "type": "function"
    },
    {
      "inputs": [],
      "name": "owner",
      "outputs": [
        {
          "internalType": "address",
          "name": "",
          "type": "address"
        }
      ],
      "stateMutability": "view",
      "type": "function"
    },
    {
      "inputs": [
        {
          "internalType": "address[]",
          "name": "pools",
          "type": "address[]"
        }
      ],
      "name": "performUpkeepMultiplePools",
      "outputs": [],
      "stateMutability": "nonpayable",
      "type": "function"
    },
    {
      "inputs": [
        {
          "internalType": "bytes",
          "name": "pools",
          "type": "bytes"
        }
      ],
      "name": "performUpkeepMultiplePoolsPacked",
      "outputs": [],
      "stateMutability": "nonpayable",
      "type": "function"
    },
    {
      "inputs": [
        {
          "internalType": "address",
          "name": "_pool",
          "type": "address"
        }
      ],
      "name": "performUpkeepSinglePool",
      "outputs": [],
      "stateMutability": "nonpayable",
      "type": "function"
    },
    {
      "inputs": [],
      "name": "renounceOwnership",
      "outputs": [],
      "stateMutability": "nonpayable",
      "type": "function"
    },
    {
      "inputs": [
        {
          "internalType": "uint256",
          "name": "_price",
          "type": "uint256"
        }
      ],
      "name": "setGasPrice",
      "outputs": [],
      "stateMutability": "nonpayable",
      "type": "function"
    },
    {
      "inputs": [
        {
          "internalType": "address",
          "name": "_keeperRewards",
          "type": "address"
        }
      ],
      "name": "setKeeperRewards",
      "outputs": [],
      "stateMutability": "nonpayable",
      "type": "function"
    },
    {
      "inputs": [
        {
          "internalType": "address",
          "name": "newOwner",
          "type": "address"
        }
      ],
      "name": "transferOwnership",
      "outputs": [],
      "stateMutability": "nonpayable",
      "type": "function"
    }
  ],
  "bytecode": "0x60a06040526402540be40060035534801561001957600080fd5b506040516113fc3803806113fc83398101604081905261003891610100565b610041336100b0565b6001600160a01b03811661009b5760405162461bcd60e51b815260206004820152601b60248201527f466163746f72792063616e6e6f74206265203020616464726573730000000000604482015260640160405180910390fd5b60601b6001600160601b031916608052610130565b600080546001600160a01b038381166001600160a01b0319831681178455604051919092169283917f8be0079c531659141344cd1fd0a4f28419497f9722a3daafe3b4186f6b6457e09190a35050565b60006020828403121561011257600080fd5b81516001600160a01b038116811461012957600080fd5b9392505050565b60805160601c6112a061015c600039600081816101b90152818161031b015261042501526112a06000f3fe608060405234801561001057600080fd5b50600436106100f55760003560e01c8063bf1fe42011610097578063e98ccdc411610066578063e98ccdc41461021c578063f2fde38b1461022f578063fcab9e9814610242578063fe173b971461025557600080fd5b8063bf1fe420146101a1578063c45a0155146101b4578063cdd9e137146101db578063ce1dcdfc1461020957600080fd5b8063715018a6116100d3578063715018a61461014a578063857ad312146101525780638da5cb5b1461017d57806391a607821461018e57600080fd5b80632027574e146100fa578063332611111461010f5780633c5c7fb314610137575b600080fd5b61010d610108366004610eec565b61025e565b005b61012261011d366004610e14565b6102f9565b60405190151581526020015b60405180910390f35b61010d610145366004610e14565b61041a565b61010d610682565b600254610165906001600160a01b031681565b6040516001600160a01b03909116815260200161012e565b6000546001600160a01b0316610165565b61010d61019c366004610e14565b6106b8565b61010d6101af366004611017565b610b3e565b6101657f000000000000000000000000000000000000000000000000000000000000000081565b6101fb6101e9366004610e14565b60016020526000908152604090205481565b60405190815260200161012e565b610122610217366004610e55565b610b9b565b61010d61022a366004610e14565b610bff565b61010d61023d366004610e14565b610cdb565b61010d610250366004610e55565b610d76565b6101fb60035481565b610269601482611143565b156102bb5760405162461bcd60e51b815260206004820181905260248201527f44617461206d757374206f6e6c7920696e636c7564652061646472657373657360448201526064015b60405180910390fd5b60006102c86014836110a4565b90508260005b828110156102f2576102e3823560601c6106b8565b601491909101906001016102ce565b5050505050565b604051635ab78ee160e01b81526001600160a01b0382811660048301526000917f000000000000000000000000000000000000000000000000000000000000000090911690635ab78ee19060240160206040518083038186803b15801561035f57600080fd5b505afa158015610373573d6000803e3d6000fd5b505050506040513d601f19601f820116820180604052508101906103979190610eca565b6103a357506000919050565b816001600160a01b0316637bbf10336040518163ffffffff1660e01b815260040160206040518083038186803b1580156103dc57600080fd5b505afa1580156103f0573d6000803e3d6000fd5b505050506040513d601f19601f820116820180604052508101906104149190610eca565b92915050565b336001600160a01b037f000000000000000000000000000000000000000000000000000000000000000016146104875760405162461bcd60e51b815260206004820152601260248201527143616c6c6572206e6f7420666163746f727960701b60448201526064016102b2565b806001600160a01b031663b9ed8abf6040518163ffffffff1660e01b815260040160206040518083038186803b1580156104c057600080fd5b505afa1580156104d4573d6000803e3d6000fd5b505050506040513d601f19601f820116820180604052508101906104f89190610e38565b6001600160a01b031663a11752796040518163ffffffff1660e01b8152600401602060405180830381600087803b15801561053257600080fd5b505af1158015610546573d6000803e3d6000fd5b505050506040513d601f19601f8201168201806040525081019061056a9190610f4c565b506000816001600160a01b031663796da7af6040518163ffffffff1660e01b815260040160206040518083038186803b1580156105a657600080fd5b505afa1580156105ba573d6000803e3d6000fd5b505050506040513d601f19601f820116820180604052508101906105de9190610f4c565b9050600081136106305760405162461bcd60e51b815260206004820152601b60248201527f4669727374207072696365206973206e6f6e2d706f736974697665000000000060448201526064016102b2565b60405181906001600160a01b038416907fe950cb32f7a787627d713d7365623fef2d762ef8fcf813b865a04350852deb9b90600090a36001600160a01b03909116600090815260016020526040902055565b6000546001600160a01b031633146106ac5760405162461bcd60e51b81526004016102b29061106f565b6106b66000610dc4565b565b60005a90506106c6826102f9565b6106ce575050565b6000826001600160a01b031663b9ed8abf6040518163ffffffff1660e01b815260040160206040518083038186803b15801561070957600080fd5b505afa15801561071d573d6000803e3d6000fd5b505050506040513d601f19601f820116820180604052508101906107419190610e38565b9050806001600160a01b031663a11752796040518163ffffffff1660e01b8152600401602060405180830381600087803b15801561077e57600080fd5b505af19250505080156107ae575060408051601f3d908101601f191682019092526107ab91810190610f4c565b60015b61082d576107ba6111af565b806308c379a0141561082157506107cf6111cb565b806107da5750610823565b836001600160a01b03167f8a47468bf96478429d382ed6385d9c77fba8b89540cd88199b1b51d5723b11fa82604051610813919061105c565b60405180910390a25061082f565b505b3d6000803e3d6000fd5b505b600080600080866001600160a01b03166304883c276040518163ffffffff1660e01b815260040160006040518083038186803b15801561086e57600080fd5b505afa158015610882573d6000803e3d6000fd5b505050506040513d6000823e601f3d908101601f191682016040526108aa9190810190610f65565b6001600160a01b038b16600081815260016020526040908190205490516303d8ce9d60e61b815260048101829052602481018790529599509397509195509350909163f633a74090604401600060405180830381600087803b15801561090f57600080fd5b505af1925050508015610920575060015b6109935761092c6111af565b806308c379a0141561082157506109416111cb565b8061094c5750610823565b886001600160a01b03167f8a47468bf96478429d382ed6385d9c77fba8b89540cd88199b1b51d5723b11fa82604051610985919061105c565b60405180910390a2506109eb565b6001600160a01b0388166000818152600160205260409081902087905551869183917f0aa8d2838ad6d4e2a5d7ca0826dfdbc36d922adf8fe5c6d25aee2724b07de074906109e290899061105c565b60405180910390a45b60005a6109f890896110b8565b60025460035460405163348c2b1f60e01b81523360048201526001600160a01b038d811660248301526044820192909252606481018490526084810188905260a481018790529293506000928392919091169063348c2b1f9060c401602060405180830381600087803b158015610a6e57600080fd5b505af1158015610a82573d6000803e3d6000fd5b505050506040513d601f19601f82011682018060405250810190610aa69190610f4c565b1115610af15760405181815233906001600160a01b038c16907ff03012dd4aab142682aa01439f94e975e2ec77ef558352323bc05f382f74b0829060200160405180910390a3610b32565b60405181815233906001600160a01b038c16907f08b35d4c86707ba44cdcc5efaa79b8a307e6c7f789f1eb86ca1ff1e9bde056979060200160405180910390a35b50505050505050505050565b6000546001600160a01b03163314610b685760405162461bcd60e51b81526004016102b29061106f565b600381905560405181907f52264b89e0fceafb26e79fd49ef8a366eb6297483bf4035b027f0c99a7ad512e90600090a250565b600081815b81811015610bf457610bd2858583818110610bbd57610bbd611183565b905060200201602081019061011d9190610e14565b15610be257600192505050610414565b80610bec81611128565b915050610ba0565b506000949350505050565b6000546001600160a01b03163314610c295760405162461bcd60e51b81526004016102b29061106f565b6001600160a01b038116610c895760405162461bcd60e51b815260206004820152602160248201527f4b6565706572526577617264732063616e6e6f742062652030206164647265736044820152607360f81b60648201526084016102b2565b600280546001600160a01b038381166001600160a01b0319831681179093556040519116919082907fed60217a0f5e211a1105c7e6fdc9df5753b136c553ae2974a15e8be0cc02ac7390600090a35050565b6000546001600160a01b03163314610d055760405162461bcd60e51b81526004016102b29061106f565b6001600160a01b038116610d6a5760405162461bcd60e51b815260206004820152602660248201527f4f776e61626c653a206e6577206f776e657220697320746865207a65726f206160448201526564647265737360d01b60648201526084016102b2565b610d7381610dc4565b50565b8060005b81811015610dbe57610dac848483818110610d9757610d97611183565b905060200201602081019061019c9190610e14565b80610db681611128565b915050610d7a565b50505050565b600080546001600160a01b038381166001600160a01b0319831681178455604051919092169283917f8be0079c531659141344cd1fd0a4f28419497f9722a3daafe3b4186f6b6457e09190a35050565b600060208284031215610e2657600080fd5b8135610e3181611255565b9392505050565b600060208284031215610e4a57600080fd5b8151610e3181611255565b60008060208385031215610e6857600080fd5b823567ffffffffffffffff80821115610e8057600080fd5b818501915085601f830112610e9457600080fd5b813581811115610ea357600080fd5b8660208260051b8501011115610eb857600080fd5b60209290920196919550909350505050565b600060208284031215610edc57600080fd5b81518015158114610e3157600080fd5b60008060208385031215610eff57600080fd5b823567ffffffffffffffff80821115610f1757600080fd5b818501915085601f830112610f2b57600080fd5b813581811115610f3a57600080fd5b866020828501011115610eb857600080fd5b600060208284031215610f5e57600080fd5b5051919050565b60008060008060808587031215610f7b57600080fd5b84519350602085015167ffffffffffffffff80821115610f9a57600080fd5b818701915087601f830112610fae57600080fd5b815181811115610fc057610fc0611199565b6040519150610fd9601f8201601f1916602001836110fb565b808252886020828501011115610fee57600080fd5b610fff8160208401602086016110cf565b50604087015160609097015195989097509350505050565b60006020828403121561102957600080fd5b5035919050565b600081518084526110488160208601602086016110cf565b601f01601f19169290920160200192915050565b602081526000610e316020830184611030565b6020808252818101527f4f776e61626c653a2063616c6c6572206973206e6f7420746865206f776e6572604082015260600190565b6000826110b3576110b361116d565b500490565b6000828210156110ca576110ca611157565b500390565b60005b838110156110ea5781810151838201526020016110d2565b83811115610dbe5750506000910152565b601f8201601f1916810167ffffffffffffffff8111828210171561112157611121611199565b6040525050565b600060001982141561113c5761113c611157565b5060010190565b6000826111525761115261116d565b500690565b634e487b7160e01b600052601160045260246000fd5b634e487b7160e01b600052601260045260246000fd5b634e487b7160e01b600052603260045260246000fd5b634e487b7160e01b600052604160045260246000fd5b600060033d11156111c85760046000803e5060005160e01c5b90565b600060443d10156111d95790565b6040516003193d81016004833e81513d67ffffffffffffffff816024840111818411171561120957505050505090565b82850191508151818111156112215750505050505090565b843d870101602082850101111561123b5750505050505090565b61124a602082860101876110fb565b509095945050505050565b6001600160a01b0381168114610d7357600080fdfea2646970667358221220276f9ff7e6c9d3c323c4c9a89cb815205e670eadd8ee2b3dd4f73b33bd924e3b64736f6c63430008070033",
  "linkReferences": {},
  "deployedLinkReferences": {}
}