{
  "_format": "hh-sol-artifact-1",
  "contractName": "PoolKeeper",
  "sourceName": "contracts/implementation/PoolKeeper.sol",
  "abi": [
    {
      "inputs": [
        {
          "internalType": "address",
          "name": "_factory",
          "type": "address"
        }
      ],
      "stateMutability": "nonpayable",
      "type": "constructor"
    },
    {
      "anonymous": false,
      "inputs": [
        {
          "indexed": true,
          "internalType": "address",
          "name": "_pool",
          "type": "address"
        },
        {
          "indexed": true,
          "internalType": "address",
          "name": "keeper",
          "type": "address"
        },
        {
          "indexed": false,
          "internalType": "uint256",
          "name": "reward",
          "type": "uint256"
        }
      ],
      "name": "KeeperPaid",
      "type": "event"
    },
    {
      "anonymous": false,
      "inputs": [
        {
          "indexed": true,
          "internalType": "address",
          "name": "_pool",
          "type": "address"
        },
        {
          "indexed": true,
          "internalType": "address",
          "name": "keeper",
          "type": "address"
        },
        {
          "indexed": false,
          "internalType": "uint256",
          "name": "expectedReward",
          "type": "uint256"
        }
      ],
      "name": "KeeperPaymentError",
      "type": "event"
    },
    {
      "anonymous": false,
      "inputs": [
        {
          "indexed": true,
          "internalType": "address",
          "name": "previousOwner",
          "type": "address"
        },
        {
          "indexed": true,
          "internalType": "address",
          "name": "newOwner",
          "type": "address"
        }
      ],
      "name": "OwnershipTransferred",
      "type": "event"
    },
    {
      "anonymous": false,
      "inputs": [
        {
          "indexed": true,
          "internalType": "address",
          "name": "poolAddress",
          "type": "address"
        },
        {
          "indexed": true,
          "internalType": "int256",
          "name": "firstPrice",
          "type": "int256"
        }
      ],
      "name": "PoolAdded",
      "type": "event"
    },
    {
      "anonymous": false,
      "inputs": [
        {
          "indexed": true,
          "internalType": "address",
          "name": "pool",
          "type": "address"
        },
        {
          "indexed": false,
          "internalType": "string",
          "name": "reason",
          "type": "string"
        }
      ],
      "name": "PoolUpkeepError",
      "type": "event"
    },
    {
      "anonymous": false,
      "inputs": [
        {
          "indexed": true,
          "internalType": "int256",
          "name": "startPrice",
          "type": "int256"
        },
        {
          "indexed": true,
          "internalType": "int256",
          "name": "endPrice",
          "type": "int256"
        }
      ],
      "name": "UpkeepSuccessful",
      "type": "event"
    },
    {
      "inputs": [],
      "name": "BASE_TIP",
      "outputs": [
        {
          "internalType": "uint256",
          "name": "",
          "type": "uint256"
        }
      ],
      "stateMutability": "view",
      "type": "function"
    },
    {
      "inputs": [],
      "name": "BLOCK_TIME",
      "outputs": [
        {
          "internalType": "uint256",
          "name": "",
          "type": "uint256"
        }
      ],
      "stateMutability": "view",
      "type": "function"
    },
    {
      "inputs": [],
      "name": "MAX_DECIMALS",
      "outputs": [
        {
          "internalType": "uint256",
          "name": "",
          "type": "uint256"
        }
      ],
      "stateMutability": "view",
      "type": "function"
    },
    {
      "inputs": [],
      "name": "TIP_DELTA_PER_BLOCK",
      "outputs": [
        {
          "internalType": "uint256",
          "name": "",
          "type": "uint256"
        }
      ],
      "stateMutability": "view",
      "type": "function"
    },
    {
      "inputs": [
        {
          "internalType": "address[]",
          "name": "_pools",
          "type": "address[]"
        }
      ],
      "name": "checkUpkeepMultiplePools",
      "outputs": [
        {
          "internalType": "bool",
          "name": "",
          "type": "bool"
        }
      ],
      "stateMutability": "view",
      "type": "function"
    },
    {
      "inputs": [
        {
          "internalType": "address",
          "name": "_pool",
          "type": "address"
        }
      ],
      "name": "checkUpkeepSinglePool",
      "outputs": [
        {
          "internalType": "bool",
          "name": "",
          "type": "bool"
        }
      ],
      "stateMutability": "view",
      "type": "function"
    },
    {
      "inputs": [
        {
          "internalType": "address",
          "name": "",
          "type": "address"
        }
      ],
      "name": "executionPrice",
      "outputs": [
        {
          "internalType": "int256",
          "name": "",
          "type": "int256"
        }
      ],
      "stateMutability": "view",
      "type": "function"
    },
    {
      "inputs": [],
      "name": "factory",
      "outputs": [
        {
          "internalType": "contract IPoolFactory",
          "name": "",
          "type": "address"
        }
      ],
      "stateMutability": "view",
      "type": "function"
    },
    {
      "inputs": [
        {
          "internalType": "address",
          "name": "_pool",
          "type": "address"
        },
        {
          "internalType": "uint256",
          "name": "_gasPrice",
          "type": "uint256"
        },
        {
          "internalType": "uint256",
          "name": "_gasSpent",
          "type": "uint256"
        }
      ],
      "name": "keeperGas",
      "outputs": [
        {
          "internalType": "uint256",
          "name": "",
          "type": "uint256"
        }
      ],
      "stateMutability": "view",
      "type": "function"
    },
    {
      "inputs": [
        {
          "internalType": "address",
          "name": "_pool",
          "type": "address"
        },
        {
          "internalType": "uint256",
          "name": "_gasPrice",
          "type": "uint256"
        },
        {
          "internalType": "uint256",
          "name": "_gasSpent",
          "type": "uint256"
        },
        {
          "internalType": "uint256",
          "name": "_savedPreviousUpdatedTimestamp",
          "type": "uint256"
        },
        {
          "internalType": "uint256",
          "name": "_poolInterval",
          "type": "uint256"
        }
      ],
      "name": "keeperReward",
      "outputs": [
        {
          "internalType": "uint256",
          "name": "",
          "type": "uint256"
        }
      ],
      "stateMutability": "view",
      "type": "function"
    },
    {
      "inputs": [
        {
          "internalType": "uint256",
          "name": "_savedPreviousUpdatedTimestamp",
          "type": "uint256"
        },
        {
          "internalType": "uint256",
          "name": "_poolInterval",
          "type": "uint256"
        }
      ],
      "name": "keeperTip",
      "outputs": [
        {
          "internalType": "uint256",
          "name": "",
          "type": "uint256"
        }
      ],
      "stateMutability": "view",
      "type": "function"
    },
    {
      "inputs": [
        {
          "internalType": "address",
          "name": "_poolAddress",
          "type": "address"
        }
      ],
      "name": "newPool",
      "outputs": [],
      "stateMutability": "nonpayable",
      "type": "function"
    },
    {
      "inputs": [],
      "name": "owner",
      "outputs": [
        {
          "internalType": "address",
          "name": "",
          "type": "address"
        }
      ],
      "stateMutability": "view",
      "type": "function"
    },
    {
      "inputs": [
        {
          "internalType": "address[]",
          "name": "pools",
          "type": "address[]"
        }
      ],
      "name": "performUpkeepMultiplePools",
      "outputs": [],
      "stateMutability": "nonpayable",
      "type": "function"
    },
    {
      "inputs": [
        {
          "internalType": "address",
          "name": "_pool",
          "type": "address"
        }
      ],
      "name": "performUpkeepSinglePool",
      "outputs": [],
      "stateMutability": "nonpayable",
      "type": "function"
    },
    {
      "inputs": [],
      "name": "renounceOwnership",
      "outputs": [],
      "stateMutability": "nonpayable",
      "type": "function"
    },
    {
      "inputs": [
        {
          "internalType": "address",
          "name": "_factory",
          "type": "address"
        }
      ],
      "name": "setFactory",
      "outputs": [],
      "stateMutability": "nonpayable",
      "type": "function"
    },
    {
      "inputs": [
        {
          "internalType": "address",
          "name": "newOwner",
          "type": "address"
        }
      ],
      "name": "transferOwnership",
      "outputs": [],
      "stateMutability": "nonpayable",
      "type": "function"
    }
  ],
  "bytecode": "0x60806040523480156200001157600080fd5b5060405162003869380380620038698339818101604052810190620000379190620001f5565b620000576200004b6200011260201b60201c565b6200011a60201b60201c565b600073ffffffffffffffffffffffffffffffffffffffff168173ffffffffffffffffffffffffffffffffffffffff161415620000ca576040517f08c379a0000000000000000000000000000000000000000000000000000000008152600401620000c1906200024e565b60405180910390fd5b80600260006101000a81548173ffffffffffffffffffffffffffffffffffffffff021916908373ffffffffffffffffffffffffffffffffffffffff16021790555050620002fd565b600033905090565b60008060009054906101000a900473ffffffffffffffffffffffffffffffffffffffff169050816000806101000a81548173ffffffffffffffffffffffffffffffffffffffff021916908373ffffffffffffffffffffffffffffffffffffffff1602179055508173ffffffffffffffffffffffffffffffffffffffff168173ffffffffffffffffffffffffffffffffffffffff167f8be0079c531659141344cd1fd0a4f28419497f9722a3daafe3b4186f6b6457e060405160405180910390a35050565b600081519050620001ef81620002e3565b92915050565b6000602082840312156200020e576200020d620002b5565b5b60006200021e84828501620001de565b91505092915050565b600062000236601b8362000270565b91506200024382620002ba565b602082019050919050565b60006020820190508181036000830152620002698162000227565b9050919050565b600082825260208201905092915050565b60006200028e8262000295565b9050919050565b600073ffffffffffffffffffffffffffffffffffffffff82169050919050565b600080fd5b7f466163746f72792063616e6e6f74206265203020616464726573730000000000600082015250565b620002ee8162000281565b8114620002fa57600080fd5b50565b61355c806200030d6000396000f3fe608060405234801561001057600080fd5b50600436106101165760003560e01c8063aea8acb1116100a2578063cdd9e13711610071578063cdd9e137146102cf578063ce1dcdfc146102ff578063f2fde38b1461032f578063f93019101461034b578063fcab9e981461036957610116565b8063aea8acb114610233578063b3fbb7c414610251578063b9c6536514610281578063c45a0155146102b157610116565b8063715018a6116100e9578063715018a6146101a15780638da5cb5b146101ab57806391a60782146101c95780639f9a3d95146101e5578063a40d6b801461020357610116565b80630417cf8e1461011b578063225739b1146101395780633c5c7fb3146101695780635bb4780814610185575b600080fd5b610123610385565b6040516101309190612f50565b60405180910390f35b610153600480360381019061014e9190612a7e565b61038a565b6040516101609190612e54565b60405180910390f35b610183600480360381019061017e9190612a7e565b6104ca565b005b61019f600480360381019061019a9190612a7e565b61071d565b005b6101a96107dd565b005b6101b3610865565b6040516101c09190612e10565b60405180910390f35b6101e360048036038101906101de9190612a7e565b61088e565b005b6101ed610d01565b6040516101fa9190612f50565b60405180910390f35b61021d60048036038101906102189190612ad8565b610d06565b60405161022a9190612f50565b60405180910390f35b61023b610e78565b6040516102489190612f50565b60405180910390f35b61026b60048036038101906102669190612b2b565b610e7d565b6040516102789190612f50565b60405180910390f35b61029b60048036038101906102969190612c7a565b6110bf565b6040516102a89190612f50565b60405180910390f35b6102b9611109565b6040516102c69190612e6f565b60405180910390f35b6102e960048036038101906102e49190612a7e565b61112f565b6040516102f69190612e8a565b60405180910390f35b61031960048036038101906103149190612ba6565b611147565b6040516103269190612e54565b60405180910390f35b61034960048036038101906103449190612a7e565b6111b8565b005b6103536112b0565b6040516103609190612f50565b60405180910390f35b610383600480360381019061037e9190612ba6565b6112b5565b005b601281565b6000600260009054906101000a900473ffffffffffffffffffffffffffffffffffffffff1673ffffffffffffffffffffffffffffffffffffffff16635ab78ee1836040518263ffffffff1660e01b81526004016103e79190612e10565b60206040518083038186803b1580156103ff57600080fd5b505afa158015610413573d6000803e3d6000fd5b505050506040513d601f19601f820116820180604052508101906104379190612bf3565b61044457600090506104c5565b8173ffffffffffffffffffffffffffffffffffffffff16637bbf10336040518163ffffffff1660e01b815260040160206040518083038186803b15801561048a57600080fd5b505afa15801561049e573d6000803e3d6000fd5b505050506040513d601f19601f820116820180604052508101906104c29190612bf3565b90505b919050565b600260009054906101000a900473ffffffffffffffffffffffffffffffffffffffff1673ffffffffffffffffffffffffffffffffffffffff163373ffffffffffffffffffffffffffffffffffffffff161461055a576040517f08c379a000000000000000000000000000000000000000000000000000000000815260040161055190612f30565b60405180910390fd5b60008173ffffffffffffffffffffffffffffffffffffffff1663b9ed8abf6040518163ffffffff1660e01b815260040160206040518083038186803b1580156105a257600080fd5b505afa1580156105b6573d6000803e3d6000fd5b505050506040513d601f19601f820116820180604052508101906105da9190612aab565b905060008173ffffffffffffffffffffffffffffffffffffffff166398d5fdca6040518163ffffffff1660e01b815260040160206040518083038186803b15801561062457600080fd5b505afa158015610638573d6000803e3d6000fd5b505050506040513d601f19601f8201168201806040525081019061065c9190612c20565b9050600061068d61068861066f8461130b565b6f403abc16d674ec80000000000000000060801b6113b9565b61184e565b9050818473ffffffffffffffffffffffffffffffffffffffff167fe950cb32f7a787627d713d7365623fef2d762ef8fcf813b865a04350852deb9b60405160405180910390a380600160008673ffffffffffffffffffffffffffffffffffffffff1673ffffffffffffffffffffffffffffffffffffffff1681526020019081526020016000208190555050505050565b6107256119ae565b73ffffffffffffffffffffffffffffffffffffffff16610743610865565b73ffffffffffffffffffffffffffffffffffffffff1614610799576040517f08c379a000000000000000000000000000000000000000000000000000000000815260040161079090612f10565b60405180910390fd5b80600260006101000a81548173ffffffffffffffffffffffffffffffffffffffff021916908373ffffffffffffffffffffffffffffffffffffffff16021790555050565b6107e56119ae565b73ffffffffffffffffffffffffffffffffffffffff16610803610865565b73ffffffffffffffffffffffffffffffffffffffff1614610859576040517f08c379a000000000000000000000000000000000000000000000000000000000815260040161085090612f10565b60405180910390fd5b61086360006119b6565b565b60008060009054906101000a900473ffffffffffffffffffffffffffffffffffffffff16905090565b60005a905061089c8261038a565b6108a65750610cfe565b600082905060008173ffffffffffffffffffffffffffffffffffffffff1663b9ed8abf6040518163ffffffff1660e01b815260040160206040518083038186803b1580156108f357600080fd5b505afa158015610907573d6000803e3d6000fd5b505050506040513d601f19601f8201168201806040525081019061092b9190612aab565b73ffffffffffffffffffffffffffffffffffffffff166398d5fdca6040518163ffffffff1660e01b815260040160206040518083038186803b15801561097057600080fd5b505afa158015610984573d6000803e3d6000fd5b505050506040513d601f19601f820116820180604052508101906109a89190612c20565b90506000600160008673ffffffffffffffffffffffffffffffffffffffff1673ffffffffffffffffffffffffffffffffffffffff168152602001908152602001600020549050610a1b610a166109fd8461130b565b6f403abc16d674ec80000000000000000060801b6113b9565b61184e565b600160008773ffffffffffffffffffffffffffffffffffffffff1673ffffffffffffffffffffffffffffffffffffffff168152602001908152602001600020819055506000600160008773ffffffffffffffffffffffffffffffffffffffff1673ffffffffffffffffffffffffffffffffffffffff16815260200190815260200160002054905060008473ffffffffffffffffffffffffffffffffffffffff16637de93f936040518163ffffffff1660e01b815260040160206040518083038186803b158015610aea57600080fd5b505afa158015610afe573d6000803e3d6000fd5b505050506040513d601f19601f82011682018060405250810190610b229190612c4d565b905060008573ffffffffffffffffffffffffffffffffffffffff1663fd2c80ae6040518163ffffffff1660e01b815260040160206040518083038186803b158015610b6c57600080fd5b505afa158015610b80573d6000803e3d6000fd5b505050506040513d601f19601f82011682018060405250810190610ba49190612cba565b63ffffffff1690508573ffffffffffffffffffffffffffffffffffffffff1663f633a74085856040518363ffffffff1660e01b8152600401610be7929190612ea5565b600060405180830381600087803b158015610c0157600080fd5b505af1925050508015610c12575060015b610ca357610c1e61330c565b806308c379a01415610c925750610c33613406565b80610c3e5750610c94565b8873ffffffffffffffffffffffffffffffffffffffff167f8a47468bf96478429d382ed6385d9c77fba8b89540cd88199b1b51d5723b11fa82604051610c849190612ece565b60405180910390a250610c9e565b505b3d6000803e3d6000fd5b610cf6565b60005a88610cb1919061309b565b9050600048905084867f958236513c61f87f2aba074d7a82bbb7d7edd9223b6bef9f7179bf5f0dad271460405160405180910390a3610cf38a82848787611a7a565b50505b505050505050505b50565b600581565b6000808473ffffffffffffffffffffffffffffffffffffffff16638226f3966040518163ffffffff1660e01b815260040160206040518083038186803b158015610d4f57600080fd5b505afa158015610d63573d6000803e3d6000fd5b505050506040513d601f19601f82011682018060405250810190610d879190612aab565b73ffffffffffffffffffffffffffffffffffffffff166398d5fdca6040518163ffffffff1660e01b815260040160206040518083038186803b158015610dcc57600080fd5b505afa158015610de0573d6000803e3d6000fd5b505050506040513d601f19601f82011682018060405250810190610e049190612c20565b905060008113610e18576000915050610e71565b6000610e2e8486610e299190613041565b611bf5565b90506000610e3b83611bf5565b9050610e6b610e66610e4d84846113b9565b6f403abc16d674ec80000000000000000060801b611c73565b61213c565b93505050505b9392505050565b600581565b600080610e8b878787610d06565b90506000610ebd610ea4610e9f87876110bf565b611bf5565b6f403abc16d674ec80000000000000000060801b6113b9565b9050610ed281610ecd6064611bf5565b611c73565b90506000610f1d610f18610ee585611bf5565b610f13610efa610ef488611bf5565b876113b9565b6f403abc16d674ec80000000000000000060801b611c73565b61223a565b61184e565b905060008973ffffffffffffffffffffffffffffffffffffffff1663217a4b706040518163ffffffff1660e01b815260040160206040518083038186803b158015610f6757600080fd5b505afa158015610f7b573d6000803e3d6000fd5b505050506040513d601f19601f82011682018060405250810190610f9f9190612aab565b73ffffffffffffffffffffffffffffffffffffffff1663313ce5676040518163ffffffff1660e01b815260040160206040518083038186803b158015610fe457600080fd5b505afa158015610ff8573d6000803e3d6000fd5b505050506040513d601f19601f8201168201806040525081019061101c9190612ce7565b60ff169050600073__$dc3b4b0a367edd91a2d74c73e2da54c142$__63bf36f0e984846040518363ffffffff1660e01b815260040161105c929190612f6b565b60206040518083038186803b15801561107457600080fd5b505af4158015611088573d6000803e3d6000fd5b505050506040513d601f19601f820116820180604052508101906110ac9190612c4d565b9050809550505050505095945050505050565b600080600d83856110d09190612fba565b426110db919061309b565b6110e59190613010565b90508060056110f49190613041565b60056111009190612fba565b91505092915050565b600260009054906101000a900473ffffffffffffffffffffffffffffffffffffffff1681565b60016020528060005260406000206000915090505481565b600080600090505b838390508110156111ac5761118a8484838181106111705761116f6132ae565b5b90506020020160208101906111859190612a7e565b61038a565b156111995760019150506111b2565b80806111a4906131d8565b91505061114f565b50600090505b92915050565b6111c06119ae565b73ffffffffffffffffffffffffffffffffffffffff166111de610865565b73ffffffffffffffffffffffffffffffffffffffff1614611234576040517f08c379a000000000000000000000000000000000000000000000000000000000815260040161122b90612f10565b60405180910390fd5b600073ffffffffffffffffffffffffffffffffffffffff168173ffffffffffffffffffffffffffffffffffffffff1614156112a4576040517f08c379a000000000000000000000000000000000000000000000000000000000815260040161129b90612ef0565b60405180910390fd5b6112ad816119b6565b50565b600d81565b60005b82829050811015611306576112f38383838181106112d9576112d86132ae565b5b90506020020160208101906112ee9190612a7e565b61088e565b80806112fe906131d8565b9150506112b8565b505050565b60008082141561132157600060801b90506113b4565b60008083136113335782600003611335565b825b905060006113428261289f565b9050607081101561135b578060700382901b915061136f565b607081111561136e576070810382901c91505b5b607081613fff01901b6dffffffffffffffffffffffffffff831617915060008412156113ab576f80000000000000000000000000000000821791505b8160801b925050505b919050565b600080617fff60708560801c6fffffffffffffffffffffffffffffffff16901c166fffffffffffffffffffffffffffffffff1690506000617fff60708560801c6fffffffffffffffffffffffffffffffff16901c166fffffffffffffffffffffffffffffffff169050617fff82141561155057617fff8114156114de57836fffffffffffffffffffffffffffffffff1916856fffffffffffffffffffffffffffffffff19161415611485576f8000000000000000000000000000000060801b8416851892505050611848565b6f8000000000000000000000000000000060801b8486186fffffffffffffffffffffffffffffffff191614156114c15783851792505050611848565b6f7fff800000000000000000000000000060801b92505050611848565b600060801b6f7fffffffffffffffffffffffffffffff60801b85166fffffffffffffffffffffffffffffffff1916141561152f576f7fff800000000000000000000000000060801b92505050611848565b6f8000000000000000000000000000000060801b8416851892505050611848565b617fff8114156115cc57600060801b6f7fffffffffffffffffffffffffffffff60801b86166fffffffffffffffffffffffffffffffff191614156115ab576f7fff800000000000000000000000000060801b92505050611848565b6f8000000000000000000000000000000060801b8516841892505050611848565b60006dffffffffffffffffffffffffffff8660801c166fffffffffffffffffffffffffffffffff1690506000831415611608576001925061161d565b6e010000000000000000000000000000811790505b60006dffffffffffffffffffffffffffff8660801c166fffffffffffffffffffffffffffffffff1690506000831415611659576001925061166e565b6e010000000000000000000000000000811790505b808202915060008214156116db57600060801b6f8000000000000000000000000000000060801b878918166fffffffffffffffffffffffffffffffff1916116116bb57600060801b6116d0565b6f8000000000000000000000000000000060801b5b945050505050611848565b828401935060007c0200000000000000000000000000000000000000000000000000000000831015611742577c010000000000000000000000000000000000000000000000000000000083101561173a576117358361289f565b61173d565b60e05b611745565b60e15b90506140708186011015611760576000945060009250611808565b6140e081860110156117a45761407085101561178557846140700383901c925061179b565b61407085111561179a57614070850383901b92505b5b60009450611807565b61c0dd81860111156117be57617fff945060009250611806565b60708111156117d5576070810383901c92506117e9565b60708110156117e8578060700383901b92505b5b6dffffffffffffffffffffffffffff831692506140df8186010394505b5b5b82607086901b6f8000000000000000000000000000000060801b898b181660801c6fffffffffffffffffffffffffffffffff16171760801b955050505050505b92915050565b600080617fff60708460801c6fffffffffffffffffffffffffffffffff16901c166fffffffffffffffffffffffffffffffff1690506140fe81111561189257600080fd5b613fff8110156118a65760009150506119a9565b60006e0100000000000000000000000000006dffffffffffffffffffffffffffff8560801c6fffffffffffffffffffffffffffffffff161617905061406f8210156118fa578161406f0381901c9050611910565b61406f82111561190f5761406f820381901b90505b5b6f800000000000000000000000000000008460801c6fffffffffffffffffffffffffffffffff1610611976577f800000000000000000000000000000000000000000000000000000000000000081111561196957600080fd5b80600003925050506119a9565b7f7fffffffffffffffffffffffffffffffffffffffffffffffffffffffffffffff8111156119a357600080fd5b80925050505b919050565b600033905090565b60008060009054906101000a900473ffffffffffffffffffffffffffffffffffffffff169050816000806101000a81548173ffffffffffffffffffffffffffffffffffffffff021916908373ffffffffffffffffffffffffffffffffffffffff1602179055508173ffffffffffffffffffffffffffffffffffffffff168173ffffffffffffffffffffffffffffffffffffffff167f8be0079c531659141344cd1fd0a4f28419497f9722a3daafe3b4186f6b6457e060405160405180910390a35050565b6000611a898686868686610e7d565b90508573ffffffffffffffffffffffffffffffffffffffff16636dc2b27133836040518363ffffffff1660e01b8152600401611ac6929190612e2b565b602060405180830381600087803b158015611ae057600080fd5b505af1158015611af4573d6000803e3d6000fd5b505050506040513d601f19601f82011682018060405250810190611b189190612bf3565b15611b87573373ffffffffffffffffffffffffffffffffffffffff168673ffffffffffffffffffffffffffffffffffffffff167ff03012dd4aab142682aa01439f94e975e2ec77ef558352323bc05f382f74b08283604051611b7a9190612f50565b60405180910390a3611bed565b3373ffffffffffffffffffffffffffffffffffffffff168673ffffffffffffffffffffffffffffffffffffffff167f08b35d4c86707ba44cdcc5efaa79b8a307e6c7f789f1eb86ca1ff1e9bde0569783604051611be49190612f50565b60405180910390a35b505050505050565b600080821415611c0b57600060801b9050611c6e565b60008290506000611c1b8261289f565b90506070811015611c34578060700382901b9150611c48565b6070811115611c47576070810382901c91505b5b607081613fff01901b6dffffffffffffffffffffffffffff83161791508160801b925050505b919050565b600080617fff60708560801c6fffffffffffffffffffffffffffffffff16901c166fffffffffffffffffffffffffffffffff1690506000617fff60708560801c6fffffffffffffffffffffffffffffffff16901c166fffffffffffffffffffffffffffffffff169050617fff821415611d2e57617fff811415611d0d576f7fff800000000000000000000000000060801b92505050612136565b6f8000000000000000000000000000000060801b8416851892505050612136565b617fff811415611dad57600060801b6dffffffffffffffffffffffffffff60801b85166fffffffffffffffffffffffffffffffff191614611d86576f7fff800000000000000000000000000060801b92505050612136565b6f8000000000000000000000000000000060801b84861816600060801b1792505050612136565b600060801b6f7fffffffffffffffffffffffffffffff60801b85166fffffffffffffffffffffffffffffffff19161415611e6857600060801b6f7fffffffffffffffffffffffffffffff60801b86166fffffffffffffffffffffffffffffffff19161415611e32576f7fff800000000000000000000000000060801b92505050612136565b6f8000000000000000000000000000000060801b848618166f7fff000000000000000000000000000060801b1792505050612136565b60006dffffffffffffffffffffffffffff8560801c166fffffffffffffffffffffffffffffffff1690506000821415611ea45760019150611eb9565b6e010000000000000000000000000000811790505b60006dffffffffffffffffffffffffffff8760801c166fffffffffffffffffffffffffffffffff1690506000841415611f1d5760008114611f18576000611eff8261289f565b60e20390508082901b9150600194506072810384019350505b611f36565b60726e0100000000000000000000000000008217901b90505b818181611f4657611f4561327f565b5b0490506000811415611fb157600060801b6f8000000000000000000000000000000060801b878918166fffffffffffffffffffffffffffffffff191611611f9157600060801b611fa6565b6f8000000000000000000000000000000060801b5b945050505050612136565b6d1000000000000000000000000000811015611fd057611fcf613221565b5b60006e080000000000000000000000000000821015612031576e040000000000000000000000000000821015612026576e02000000000000000000000000000082101561201e576070612021565b60715b612029565b60725b60ff1661203b565b61203a8261289f565b5b90506140718401818601111561205957617fff9450600091506120f6565b83613ffc8287010110156120745760009450600091506120f5565b83613f8c8287010110156120c25783613ffc8601111561209f5783613ffc86010382901b91506120b9565b83613ffc860110156120b857613ffc8585030382901c91505b5b600094506120f4565b60708111156120d5576070810382901c91505b6dffffffffffffffffffffffffffff8216915083613f8d828701010394505b5b5b81607086901b6f8000000000000000000000000000000060801b898b181660801c6fffffffffffffffffffffffffffffffff16171760801b955050505050505b92915050565b600080617fff60708460801c6fffffffffffffffffffffffffffffffff16901c166fffffffffffffffffffffffffffffffff169050613fff811015612185576000915050612235565b6f800000000000000000000000000000008360801c6fffffffffffffffffffffffffffffffff16106121b657600080fd5b6140fe8111156121c557600080fd5b60006e0100000000000000000000000000006dffffffffffffffffffffffffffff8560801c6fffffffffffffffffffffffffffffffff161617905061406f821015612219578161406f0381901c905061222f565b61406f82111561222e5761406f820381901b90505b5b80925050505b919050565b600080617fff60708560801c6fffffffffffffffffffffffffffffffff16901c166fffffffffffffffffffffffffffffffff1690506000617fff60708560801c6fffffffffffffffffffffffffffffffff16901c166fffffffffffffffffffffffffffffffff169050617fff82141561231657617fff81141561230c57836fffffffffffffffffffffffffffffffff1916856fffffffffffffffffffffffffffffffff191614156122ef578492505050612899565b6f7fff800000000000000000000000000060801b92505050612899565b8492505050612899565b617fff81141561232a578392505050612899565b60006f800000000000000000000000000000008660801c6fffffffffffffffffffffffffffffffff161015905060006dffffffffffffffffffffffffffff8760801c166fffffffffffffffffffffffffffffffff169050600084141561239357600193506123a8565b6e010000000000000000000000000000811790505b60006f800000000000000000000000000000008760801c6fffffffffffffffffffffffffffffffff161015905060006dffffffffffffffffffffffffffff8860801c166fffffffffffffffffffffffffffffffff16905060008514156124115760019450612426565b6e010000000000000000000000000000811790505b6000831415612488576f8000000000000000000000000000000060801b6fffffffffffffffffffffffffffffffff1916886fffffffffffffffffffffffffffffffff191614612475578761247b565b600060801b5b9650505050505050612899565b60008114156124ea576f8000000000000000000000000000000060801b6fffffffffffffffffffffffffffffffff1916896fffffffffffffffffffffffffffffffff1916146124d757886124dd565b600060801b5b9650505050505050612899565b6000858703905082151585151514156126685760708113156125155789975050505050505050612899565b6000811315612529578082901c9150612577565b7fffffffffffffffffffffffffffffffffffffffffffffffffffffffffffffff908112156125605788975050505050505050612899565b6000811215612576578060000384901c93508596505b5b81840193506e02000000000000000000000000000084106125a057600184901c93506001870196505b617fff8714156125eb57846125c8576f7fff000000000000000000000000000060801b6125dd565b6fffff000000000000000000000000000060801b5b975050505050505050612899565b6e01000000000000000000000000000084101561260b576000965061261f565b6dffffffffffffffffffffffffffff841693505b83607088901b86612631576000612643565b6f800000000000000000000000000000005b6fffffffffffffffffffffffffffffffff16171760801b975050505050505050612899565b600081131561268357600184901b935060018703965061269b565b600081121561269a57600182901b91506001860396505b5b60708113156126ad5760019150612737565b60018113156126c957600180820360018403901c019150612736565b7fffffffffffffffffffffffffffffffffffffffffffffffffffffffffffffff908112156126fa5760019350612735565b7fffffffffffffffffffffffffffffffffffffffffffffffffffffffffffffffff81121561273457600180826000030360018603901c0193505b5b5b5b818410612748578184039350612751565b83820393508294505b600084141561276d57600060801b975050505050505050612899565b60006127788561289f565b905060718114156127a5576dffffffffffffffffffffffffffff600186901c169450600188019750612807565b60708110156127f2576000816070039050808911156127de576dffffffffffffffffffffffffffff8187901b16955080890398506127ec565b6001890386901b9550600098505b50612806565b6dffffffffffffffffffffffffffff851694505b5b617fff881415612853578561282f576f7fff000000000000000000000000000060801b612844565b6fffff000000000000000000000000000060801b5b98505050505050505050612899565b84607089901b87612865576000612877565b6f800000000000000000000000000000005b6fffffffffffffffffffffffffffffffff16171760801b985050505050505050505b92915050565b60008082116128ad57600080fd5b600070010000000000000000000000000000000083106128d557608083901c92506080810190505b6801000000000000000083106128f357604083901c92506040810190505b640100000000831061290d57602083901c92506020810190505b62010000831061292557601083901c92506010810190505b610100831061293c57600883901c92506008810190505b6010831061295257600483901c92506004810190505b6004831061296857600283901c92506002810190505b60028310612977576001810190505b80915050919050565b60008135905061298f8161349c565b92915050565b6000815190506129a48161349c565b92915050565b60008083601f8401126129c0576129bf613333565b5b8235905067ffffffffffffffff8111156129dd576129dc61332e565b5b6020830191508360208202830111156129f9576129f8613338565b5b9250929050565b600081519050612a0f816134b3565b92915050565b600081519050612a24816134ca565b92915050565b600081359050612a39816134e1565b92915050565b600081519050612a4e816134e1565b92915050565b600081519050612a63816134f8565b92915050565b600081519050612a788161350f565b92915050565b600060208284031215612a9457612a93613342565b5b6000612aa284828501612980565b91505092915050565b600060208284031215612ac157612ac0613342565b5b6000612acf84828501612995565b91505092915050565b600080600060608486031215612af157612af0613342565b5b6000612aff86828701612980565b9350506020612b1086828701612a2a565b9250506040612b2186828701612a2a565b9150509250925092565b600080600080600060a08688031215612b4757612b46613342565b5b6000612b5588828901612980565b9550506020612b6688828901612a2a565b9450506040612b7788828901612a2a565b9350506060612b8888828901612a2a565b9250506080612b9988828901612a2a565b9150509295509295909350565b60008060208385031215612bbd57612bbc613342565b5b600083013567ffffffffffffffff811115612bdb57612bda61333d565b5b612be7858286016129aa565b92509250509250929050565b600060208284031215612c0957612c08613342565b5b6000612c1784828501612a00565b91505092915050565b600060208284031215612c3657612c35613342565b5b6000612c4484828501612a15565b91505092915050565b600060208284031215612c6357612c62613342565b5b6000612c7184828501612a3f565b91505092915050565b60008060408385031215612c9157612c90613342565b5b6000612c9f85828601612a2a565b9250506020612cb085828601612a2a565b9150509250929050565b600060208284031215612cd057612ccf613342565b5b6000612cde84828501612a54565b91505092915050565b600060208284031215612cfd57612cfc613342565b5b6000612d0b84828501612a69565b91505092915050565b612d1d816130cf565b82525050565b612d2c816130e1565b82525050565b612d3b8161313e565b82525050565b612d4a816130ed565b82525050565b6000612d5b82612f9e565b612d658185612fa9565b9350612d75818560208601613174565b612d7e81613347565b840191505092915050565b6000612d96602683612fa9565b9150612da182613365565b604082019050919050565b6000612db9602083612fa9565b9150612dc4826133b4565b602082019050919050565b6000612ddc601283612fa9565b9150612de7826133dd565b602082019050919050565b612dfb81613117565b82525050565b612e0a81613117565b82525050565b6000602082019050612e256000830184612d14565b92915050565b6000604082019050612e406000830185612d14565b612e4d6020830184612df2565b9392505050565b6000602082019050612e696000830184612d23565b92915050565b6000602082019050612e846000830184612d32565b92915050565b6000602082019050612e9f6000830184612d41565b92915050565b6000604082019050612eba6000830185612d41565b612ec76020830184612d41565b9392505050565b60006020820190508181036000830152612ee88184612d50565b905092915050565b60006020820190508181036000830152612f0981612d89565b9050919050565b60006020820190508181036000830152612f2981612dac565b9050919050565b60006020820190508181036000830152612f4981612dcf565b9050919050565b6000602082019050612f656000830184612df2565b92915050565b6000604082019050612f806000830185612e01565b612f8d6020830184612e01565b9392505050565b6000604051905090565b600081519050919050565b600082825260208201905092915050565b6000612fc582613117565b9150612fd083613117565b9250827fffffffffffffffffffffffffffffffffffffffffffffffffffffffffffffffff0382111561300557613004613250565b5b828201905092915050565b600061301b82613117565b915061302683613117565b9250826130365761303561327f565b5b828204905092915050565b600061304c82613117565b915061305783613117565b9250817fffffffffffffffffffffffffffffffffffffffffffffffffffffffffffffffff04831182151516156130905761308f613250565b5b828202905092915050565b60006130a682613117565b91506130b183613117565b9250828210156130c4576130c3613250565b5b828203905092915050565b60006130da826130f7565b9050919050565b60008115159050919050565b6000819050919050565b600073ffffffffffffffffffffffffffffffffffffffff82169050919050565b6000819050919050565b600063ffffffff82169050919050565b600060ff82169050919050565b600061314982613150565b9050919050565b600061315b82613162565b9050919050565b600061316d826130f7565b9050919050565b60005b83811015613192578082015181840152602081019050613177565b838111156131a1576000848401525b50505050565b6131b082613347565b810181811067ffffffffffffffff821117156131cf576131ce6132dd565b5b80604052505050565b60006131e382613117565b91507fffffffffffffffffffffffffffffffffffffffffffffffffffffffffffffffff82141561321657613215613250565b5b600182019050919050565b7f4e487b7100000000000000000000000000000000000000000000000000000000600052600160045260246000fd5b7f4e487b7100000000000000000000000000000000000000000000000000000000600052601160045260246000fd5b7f4e487b7100000000000000000000000000000000000000000000000000000000600052601260045260246000fd5b7f4e487b7100000000000000000000000000000000000000000000000000000000600052603260045260246000fd5b7f4e487b7100000000000000000000000000000000000000000000000000000000600052604160045260246000fd5b600060033d111561332b5760046000803e613328600051613358565b90505b90565b600080fd5b600080fd5b600080fd5b600080fd5b600080fd5b6000601f19601f8301169050919050565b60008160e01c9050919050565b7f4f776e61626c653a206e6577206f776e657220697320746865207a65726f206160008201527f6464726573730000000000000000000000000000000000000000000000000000602082015250565b7f4f776e61626c653a2063616c6c6572206973206e6f7420746865206f776e6572600082015250565b7f43616c6c6572206e6f7420666163746f72790000000000000000000000000000600082015250565b600060443d101561341657613499565b61341e612f94565b60043d036004823e80513d602482011167ffffffffffffffff82111715613446575050613499565b808201805167ffffffffffffffff8111156134645750505050613499565b80602083010160043d038501811115613481575050505050613499565b613490826020018501866131a7565b82955050505050505b90565b6134a5816130cf565b81146134b057600080fd5b50565b6134bc816130e1565b81146134c757600080fd5b50565b6134d3816130ed565b81146134de57600080fd5b50565b6134ea81613117565b81146134f557600080fd5b50565b61350181613121565b811461350c57600080fd5b50565b61351881613131565b811461352357600080fd5b5056fea2646970667358221220cac43d12cc6ada9dc4cb5de1592f63c11f77dd7f4f5ae5a32af4b12a2a12e21764736f6c63430008070033",
  "linkReferences": {
    "contracts/implementation/PoolSwapLibrary.sol": {
      "PoolSwapLibrary": [
        {
          "length": 20,
          "start": 4914
        }
      ]
    }
  },
  "deployedLinkReferences": {
    "contracts/implementation/PoolSwapLibrary.sol": {
      "PoolSwapLibrary": [
        {
          "length": 20,
          "start": 4133
        }
      ]
    }
  }
}